{
  "_format": "hh-sol-artifact-1",
  "contractName": "ZenoERC721Factory",
  "sourceName": "contracts/ZenoERC721Factory.sol",
  "abi": [
    {
      "inputs": [
        {
          "internalType": "address",
          "name": "_implementation",
          "type": "address"
        }
      ],
      "stateMutability": "nonpayable",
      "type": "constructor"
    },
    {
      "anonymous": false,
      "inputs": [
        {
          "indexed": false,
          "internalType": "address",
          "name": "erc721",
          "type": "address"
        },
        {
          "indexed": false,
          "internalType": "address",
          "name": "owner",
          "type": "address"
        }
      ],
      "name": "NewBusinessERC721",
      "type": "event"
    },
    {
      "inputs": [
        {
          "internalType": "uint256",
          "name": "businessId",
          "type": "uint256"
        }
      ],
      "name": "createBusinessERC721Contract",
      "outputs": [
        {
          "internalType": "address",
          "name": "erc721",
          "type": "address"
        }
      ],
      "stateMutability": "nonpayable",
      "type": "function"
    },
    {
      "inputs": [
        {
          "internalType": "uint256",
          "name": "businessId",
          "type": "uint256"
        }
      ],
      "name": "getDeployedContract",
      "outputs": [
        {
          "internalType": "address",
          "name": "",
          "type": "address"
        }
      ],
      "stateMutability": "view",
      "type": "function"
    },
    {
      "inputs": [],
      "name": "implementation",
      "outputs": [
        {
          "internalType": "address",
          "name": "",
          "type": "address"
        }
      ],
      "stateMutability": "view",
      "type": "function"
    }
  ],
  "bytecode": "0x608060405234801561001057600080fd5b5060405161057e38038061057e833981810160405281019061003291906100db565b806000806101000a81548173ffffffffffffffffffffffffffffffffffffffff021916908373ffffffffffffffffffffffffffffffffffffffff16021790555050610108565b600080fd5b600073ffffffffffffffffffffffffffffffffffffffff82169050919050565b60006100a88261007d565b9050919050565b6100b88161009d565b81146100c357600080fd5b50565b6000815190506100d5816100af565b92915050565b6000602082840312156100f1576100f0610078565b5b60006100ff848285016100c6565b91505092915050565b610467806101176000396000f3fe608060405234801561001057600080fd5b50600436106100415760003560e01c8063173ba4c8146100465780635c60da1b14610076578063831c317214610094575b600080fd5b610060600480360381019061005b9190610302565b6100c4565b60405161006d9190610370565b60405180910390f35b61007e610181565b60405161008b9190610370565b60405180910390f35b6100ae60048036038101906100a99190610302565b6101a5565b6040516100bb9190610370565b60405180910390f35b60006100ef60008054906101000a900473ffffffffffffffffffffffffffffffffffffffff16610224565b9050806001600084815260200190815260200160002060006101000a81548173ffffffffffffffffffffffffffffffffffffffff021916908373ffffffffffffffffffffffffffffffffffffffff1602179055507f4e32687a30cbee49244438409964aa382f148c42085c3d5a30332d8b726b601c813360405161017492919061038b565b60405180910390a1919050565b60008054906101000a900473ffffffffffffffffffffffffffffffffffffffff1681565b60008082116101e9576040517f08c379a00000000000000000000000000000000000000000000000000000000081526004016101e090610411565b60405180910390fd5b6001600083815260200190815260200160002060009054906101000a900473ffffffffffffffffffffffffffffffffffffffff169050919050565b6000808260601b90506040517f3d602d80600a3d3981f3363d3d373d3d3d363d7300000000000000000000000081528160148201527f5af43d82803e903d91602b57fd5bf3000000000000000000000000000000000060288201526037816000f09250503373ffffffffffffffffffffffffffffffffffffffff168273ffffffffffffffffffffffffffffffffffffffff1614156102c157600080fd5b50919050565b600080fd5b6000819050919050565b6102df816102cc565b81146102ea57600080fd5b50565b6000813590506102fc816102d6565b92915050565b600060208284031215610318576103176102c7565b5b6000610326848285016102ed565b91505092915050565b600073ffffffffffffffffffffffffffffffffffffffff82169050919050565b600061035a8261032f565b9050919050565b61036a8161034f565b82525050565b60006020820190506103856000830184610361565b92915050565b60006040820190506103a06000830185610361565b6103ad6020830184610361565b9392505050565b600082825260208201905092915050565b7f696e76616c696420627573696e65737320696400000000000000000000000000600082015250565b60006103fb6013836103b4565b9150610406826103c5565b602082019050919050565b6000602082019050818103600083015261042a816103ee565b905091905056fea2646970667358221220e09347fd0c7c6eb761cc6a8a5064a4807dea96f6e0e58fd8a16fa8fcfa70791164736f6c634300080a0033",
  "linkReferences": {},
  "deployedLinkReferences": {}
}