{
  "_format": "hh-sol-artifact-1",
  "contractName": "ZenoPaymaster",
  "sourceName": "contracts/ZenoPaymaster.sol",
  "abi": [
    {
      "anonymous": false,
      "inputs": [
        {
          "indexed": true,
          "internalType": "address",
          "name": "previousOwner",
          "type": "address"
        },
        {
          "indexed": true,
          "internalType": "address",
          "name": "newOwner",
          "type": "address"
        }
      ],
      "name": "OwnershipTransferred",
      "type": "event"
    },
    {
      "inputs": [],
      "name": "CALLDATA_SIZE_LIMIT",
      "outputs": [
        {
          "internalType": "uint256",
          "name": "",
          "type": "uint256"
        }
      ],
      "stateMutability": "view",
      "type": "function"
    },
    {
      "inputs": [],
      "name": "FORWARDER_HUB_OVERHEAD",
      "outputs": [
        {
          "internalType": "uint256",
          "name": "",
          "type": "uint256"
        }
      ],
      "stateMutability": "view",
      "type": "function"
    },
    {
      "inputs": [],
      "name": "PAYMASTER_ACCEPTANCE_BUDGET",
      "outputs": [
        {
          "internalType": "uint256",
          "name": "",
          "type": "uint256"
        }
      ],
      "stateMutability": "view",
      "type": "function"
    },
    {
      "inputs": [],
      "name": "POST_RELAYED_CALL_GAS_LIMIT",
      "outputs": [
        {
          "internalType": "uint256",
          "name": "",
          "type": "uint256"
        }
      ],
      "stateMutability": "view",
      "type": "function"
    },
    {
      "inputs": [],
      "name": "PRE_RELAYED_CALL_GAS_LIMIT",
      "outputs": [
        {
          "internalType": "uint256",
          "name": "",
          "type": "uint256"
        }
      ],
      "stateMutability": "view",
      "type": "function"
    },
    {
      "inputs": [
        {
          "components": [
            {
              "components": [
                {
                  "internalType": "address",
                  "name": "from",
                  "type": "address"
                },
                {
                  "internalType": "address",
                  "name": "to",
                  "type": "address"
                },
                {
                  "internalType": "uint256",
                  "name": "value",
                  "type": "uint256"
                },
                {
                  "internalType": "uint256",
                  "name": "gas",
                  "type": "uint256"
                },
                {
                  "internalType": "uint256",
                  "name": "nonce",
                  "type": "uint256"
                },
                {
                  "internalType": "bytes",
                  "name": "data",
                  "type": "bytes"
                },
                {
                  "internalType": "uint256",
                  "name": "validUntil",
                  "type": "uint256"
                }
              ],
              "internalType": "struct IForwarder.ForwardRequest",
              "name": "request",
              "type": "tuple"
            },
            {
              "components": [
                {
                  "internalType": "uint256",
                  "name": "gasPrice",
                  "type": "uint256"
                },
                {
                  "internalType": "uint256",
                  "name": "pctRelayFee",
                  "type": "uint256"
                },
                {
                  "internalType": "uint256",
                  "name": "baseRelayFee",
                  "type": "uint256"
                },
                {
                  "internalType": "address",
                  "name": "relayWorker",
                  "type": "address"
                },
                {
                  "internalType": "address",
                  "name": "paymaster",
                  "type": "address"
                },
                {
                  "internalType": "address",
                  "name": "forwarder",
                  "type": "address"
                },
                {
                  "internalType": "bytes",
                  "name": "paymasterData",
                  "type": "bytes"
                },
                {
                  "internalType": "uint256",
                  "name": "clientId",
                  "type": "uint256"
                }
              ],
              "internalType": "struct GsnTypes.RelayData",
              "name": "relayData",
              "type": "tuple"
            }
          ],
          "internalType": "struct GsnTypes.RelayRequest",
          "name": "relayRequest",
          "type": "tuple"
        }
      ],
      "name": "_verifyForwarder",
      "outputs": [],
      "stateMutability": "view",
      "type": "function"
    },
    {
      "inputs": [],
      "name": "getGasAndDataLimits",
      "outputs": [
        {
          "components": [
            {
              "internalType": "uint256",
              "name": "acceptanceBudget",
              "type": "uint256"
            },
            {
              "internalType": "uint256",
              "name": "preRelayedCallGasLimit",
              "type": "uint256"
            },
            {
              "internalType": "uint256",
              "name": "postRelayedCallGasLimit",
              "type": "uint256"
            },
            {
              "internalType": "uint256",
              "name": "calldataSizeLimit",
              "type": "uint256"
            }
          ],
          "internalType": "struct IPaymaster.GasAndDataLimits",
          "name": "limits",
          "type": "tuple"
        }
      ],
      "stateMutability": "view",
      "type": "function"
    },
    {
      "inputs": [],
      "name": "getHubAddr",
      "outputs": [
        {
          "internalType": "address",
          "name": "",
          "type": "address"
        }
      ],
      "stateMutability": "view",
      "type": "function"
    },
    {
      "inputs": [],
      "name": "getRelayHubDeposit",
      "outputs": [
        {
          "internalType": "uint256",
          "name": "",
          "type": "uint256"
        }
      ],
      "stateMutability": "view",
      "type": "function"
    },
    {
      "inputs": [
        {
          "components": [
            {
              "components": [
                {
                  "internalType": "address",
                  "name": "from",
                  "type": "address"
                },
                {
                  "internalType": "address",
                  "name": "to",
                  "type": "address"
                },
                {
                  "internalType": "uint256",
                  "name": "value",
                  "type": "uint256"
                },
                {
                  "internalType": "uint256",
                  "name": "gas",
                  "type": "uint256"
                },
                {
                  "internalType": "uint256",
                  "name": "nonce",
                  "type": "uint256"
                },
                {
                  "internalType": "bytes",
                  "name": "data",
                  "type": "bytes"
                },
                {
                  "internalType": "uint256",
                  "name": "validUntil",
                  "type": "uint256"
                }
              ],
              "internalType": "struct IForwarder.ForwardRequest",
              "name": "request",
              "type": "tuple"
            },
            {
              "components": [
                {
                  "internalType": "uint256",
                  "name": "gasPrice",
                  "type": "uint256"
                },
                {
                  "internalType": "uint256",
                  "name": "pctRelayFee",
                  "type": "uint256"
                },
                {
                  "internalType": "uint256",
                  "name": "baseRelayFee",
                  "type": "uint256"
                },
                {
                  "internalType": "address",
                  "name": "relayWorker",
                  "type": "address"
                },
                {
                  "internalType": "address",
                  "name": "paymaster",
                  "type": "address"
                },
                {
                  "internalType": "address",
                  "name": "forwarder",
                  "type": "address"
                },
                {
                  "internalType": "bytes",
                  "name": "paymasterData",
                  "type": "bytes"
                },
                {
                  "internalType": "uint256",
                  "name": "clientId",
                  "type": "uint256"
                }
              ],
              "internalType": "struct GsnTypes.RelayData",
              "name": "relayData",
              "type": "tuple"
            }
          ],
          "internalType": "struct GsnTypes.RelayRequest",
          "name": "relayRequest",
          "type": "tuple"
        }
      ],
      "name": "getRequestHash",
      "outputs": [
        {
          "internalType": "bytes32",
          "name": "",
          "type": "bytes32"
        }
      ],
      "stateMutability": "pure",
      "type": "function"
    },
    {
      "inputs": [],
      "name": "owner",
      "outputs": [
        {
          "internalType": "address",
          "name": "",
          "type": "address"
        }
      ],
      "stateMutability": "view",
      "type": "function"
    },
    {
      "inputs": [
        {
          "components": [
            {
              "internalType": "address",
              "name": "from",
              "type": "address"
            },
            {
              "internalType": "address",
              "name": "to",
              "type": "address"
            },
            {
              "internalType": "uint256",
              "name": "value",
              "type": "uint256"
            },
            {
              "internalType": "uint256",
              "name": "gas",
              "type": "uint256"
            },
            {
              "internalType": "uint256",
              "name": "nonce",
              "type": "uint256"
            },
            {
              "internalType": "bytes",
              "name": "data",
              "type": "bytes"
            },
            {
              "internalType": "uint256",
              "name": "validUntil",
              "type": "uint256"
            }
          ],
          "internalType": "struct IForwarder.ForwardRequest",
          "name": "req",
          "type": "tuple"
        }
      ],
      "name": "packForwardRequest",
      "outputs": [
        {
          "internalType": "bytes",
          "name": "",
          "type": "bytes"
        }
      ],
      "stateMutability": "pure",
      "type": "function"
    },
    {
      "inputs": [
        {
          "components": [
            {
              "internalType": "uint256",
              "name": "gasPrice",
              "type": "uint256"
            },
            {
              "internalType": "uint256",
              "name": "pctRelayFee",
              "type": "uint256"
            },
            {
              "internalType": "uint256",
              "name": "baseRelayFee",
              "type": "uint256"
            },
            {
              "internalType": "address",
              "name": "relayWorker",
              "type": "address"
            },
            {
              "internalType": "address",
              "name": "paymaster",
              "type": "address"
            },
            {
              "internalType": "address",
              "name": "forwarder",
              "type": "address"
            },
            {
              "internalType": "bytes",
              "name": "paymasterData",
              "type": "bytes"
            },
            {
              "internalType": "uint256",
              "name": "clientId",
              "type": "uint256"
            }
          ],
          "internalType": "struct GsnTypes.RelayData",
          "name": "d",
          "type": "tuple"
        }
      ],
      "name": "packRelayData",
      "outputs": [
        {
          "internalType": "bytes",
          "name": "",
          "type": "bytes"
        }
      ],
      "stateMutability": "pure",
      "type": "function"
    },
    {
      "inputs": [
        {
          "internalType": "bytes",
          "name": "context",
          "type": "bytes"
        },
        {
          "internalType": "bool",
          "name": "success",
          "type": "bool"
        },
        {
          "internalType": "uint256",
          "name": "gasUseWithoutPost",
          "type": "uint256"
        },
        {
          "components": [
            {
              "internalType": "uint256",
              "name": "gasPrice",
              "type": "uint256"
            },
            {
              "internalType": "uint256",
              "name": "pctRelayFee",
              "type": "uint256"
            },
            {
              "internalType": "uint256",
              "name": "baseRelayFee",
              "type": "uint256"
            },
            {
              "internalType": "address",
              "name": "relayWorker",
              "type": "address"
            },
            {
              "internalType": "address",
              "name": "paymaster",
              "type": "address"
            },
            {
              "internalType": "address",
              "name": "forwarder",
              "type": "address"
            },
            {
              "internalType": "bytes",
              "name": "paymasterData",
              "type": "bytes"
            },
            {
              "internalType": "uint256",
              "name": "clientId",
              "type": "uint256"
            }
          ],
          "internalType": "struct GsnTypes.RelayData",
          "name": "relayData",
          "type": "tuple"
        }
      ],
      "name": "postRelayedCall",
      "outputs": [],
      "stateMutability": "nonpayable",
      "type": "function"
    },
    {
      "inputs": [
        {
          "components": [
            {
              "components": [
                {
                  "internalType": "address",
                  "name": "from",
                  "type": "address"
                },
                {
                  "internalType": "address",
                  "name": "to",
                  "type": "address"
                },
                {
                  "internalType": "uint256",
                  "name": "value",
                  "type": "uint256"
                },
                {
                  "internalType": "uint256",
                  "name": "gas",
                  "type": "uint256"
                },
                {
                  "internalType": "uint256",
                  "name": "nonce",
                  "type": "uint256"
                },
                {
                  "internalType": "bytes",
                  "name": "data",
                  "type": "bytes"
                },
                {
                  "internalType": "uint256",
                  "name": "validUntil",
                  "type": "uint256"
                }
              ],
              "internalType": "struct IForwarder.ForwardRequest",
              "name": "request",
              "type": "tuple"
            },
            {
              "components": [
                {
                  "internalType": "uint256",
                  "name": "gasPrice",
                  "type": "uint256"
                },
                {
                  "internalType": "uint256",
                  "name": "pctRelayFee",
                  "type": "uint256"
                },
                {
                  "internalType": "uint256",
                  "name": "baseRelayFee",
                  "type": "uint256"
                },
                {
                  "internalType": "address",
                  "name": "relayWorker",
                  "type": "address"
                },
                {
                  "internalType": "address",
                  "name": "paymaster",
                  "type": "address"
                },
                {
                  "internalType": "address",
                  "name": "forwarder",
                  "type": "address"
                },
                {
                  "internalType": "bytes",
                  "name": "paymasterData",
                  "type": "bytes"
                },
                {
                  "internalType": "uint256",
                  "name": "clientId",
                  "type": "uint256"
                }
              ],
              "internalType": "struct GsnTypes.RelayData",
              "name": "relayData",
              "type": "tuple"
            }
          ],
          "internalType": "struct GsnTypes.RelayRequest",
          "name": "relayRequest",
          "type": "tuple"
        },
        {
          "internalType": "bytes",
          "name": "signature",
          "type": "bytes"
        },
        {
          "internalType": "bytes",
          "name": "approvalData",
          "type": "bytes"
        },
        {
          "internalType": "uint256",
          "name": "maxPossibleGas",
          "type": "uint256"
        }
      ],
      "name": "preRelayedCall",
      "outputs": [
        {
          "internalType": "bytes",
          "name": "context",
          "type": "bytes"
        },
        {
          "internalType": "bool",
          "name": "revertOnRecipientRevert",
          "type": "bool"
        }
      ],
      "stateMutability": "nonpayable",
      "type": "function"
    },
    {
      "inputs": [],
      "name": "renounceOwnership",
      "outputs": [],
      "stateMutability": "nonpayable",
      "type": "function"
    },
    {
      "inputs": [
        {
          "internalType": "contract IRelayHub",
          "name": "hub",
          "type": "address"
        }
      ],
      "name": "setRelayHub",
      "outputs": [],
      "stateMutability": "nonpayable",
      "type": "function"
    },
    {
      "inputs": [
        {
          "internalType": "address",
          "name": "_signer",
          "type": "address"
        }
      ],
      "name": "setSigner",
      "outputs": [],
      "stateMutability": "nonpayable",
      "type": "function"
    },
    {
      "inputs": [
        {
          "internalType": "address",
          "name": "forwarder",
          "type": "address"
        }
      ],
      "name": "setTrustedForwarder",
      "outputs": [],
      "stateMutability": "nonpayable",
      "type": "function"
    },
    {
      "inputs": [],
      "name": "signer",
      "outputs": [
        {
          "internalType": "address",
          "name": "",
          "type": "address"
        }
      ],
      "stateMutability": "view",
      "type": "function"
    },
    {
      "inputs": [
        {
          "internalType": "address",
          "name": "newOwner",
          "type": "address"
        }
      ],
      "name": "transferOwnership",
      "outputs": [],
      "stateMutability": "nonpayable",
      "type": "function"
    },
    {
      "inputs": [],
      "name": "trustedForwarder",
      "outputs": [
        {
          "internalType": "address",
          "name": "",
          "type": "address"
        }
      ],
      "stateMutability": "view",
      "type": "function"
    },
    {
      "inputs": [],
      "name": "versionPaymaster",
      "outputs": [
        {
          "internalType": "string",
          "name": "",
          "type": "string"
        }
      ],
      "stateMutability": "view",
      "type": "function"
    },
    {
      "inputs": [
        {
          "internalType": "uint256",
          "name": "amount",
          "type": "uint256"
        },
        {
          "internalType": "address payable",
          "name": "target",
          "type": "address"
        }
      ],
      "name": "withdrawRelayHubDepositTo",
      "outputs": [],
      "stateMutability": "nonpayable",
      "type": "function"
    },
    {
      "stateMutability": "payable",
      "type": "receive"
    }
  ],
  "bytecode": "0x60806040523480156200001157600080fd5b5062000032620000266200003860201b60201c565b6200004060201b60201c565b62000104565b600033905090565b60008060009054906101000a900473ffffffffffffffffffffffffffffffffffffffff169050816000806101000a81548173ffffffffffffffffffffffffffffffffffffffff021916908373ffffffffffffffffffffffffffffffffffffffff1602179055508173ffffffffffffffffffffffffffffffffffffffff168173ffffffffffffffffffffffffffffffffffffffff167f8be0079c531659141344cd1fd0a4f28419497f9722a3daafe3b4186f6b6457e060405160405180910390a35050565b61296f80620001146000396000f3fe60806040526004361061014e5760003560e01c80638da5cb5b116100b6578063bbdaa3c91161006f578063bbdaa3c914610599578063da742228146105c4578063df463a66146105ed578063f2fde38b14610618578063f9c002f714610641578063fdee11211461066c57610275565b80638da5cb5b14610487578063921276ea146104b2578063a5dcd07b146104dd578063b039a88f14610506578063b90b41cf14610531578063bb15dbde1461055c57610275565b8063715018a611610108578063715018a61461038b57806374e861d6146103a257806376fa01c3146103cd5780637bb05264146103f65780637c12890c1461041f5780637da0a8771461045c57610275565b8062be5dd41461027a578063238ac933146102b85780632afe31c1146102e35780632d14c4b71461030e5780635c5e3db1146103375780636c19e7831461036257610275565b3661027557600073ffffffffffffffffffffffffffffffffffffffff16600160009054906101000a900473ffffffffffffffffffffffffffffffffffffffff1673ffffffffffffffffffffffffffffffffffffffff1614156101e5576040517f08c379a00000000000000000000000000000000000000000000000000000000081526004016101dc90611811565b60405180910390fd5b600160009054906101000a900473ffffffffffffffffffffffffffffffffffffffff1673ffffffffffffffffffffffffffffffffffffffff1663aa67c91934306040518363ffffffff1660e01b81526004016102419190611872565b6000604051808303818588803b15801561025a57600080fd5b505af115801561026e573d6000803e3d6000fd5b5050505050005b600080fd5b34801561028657600080fd5b506102a1600480360381019061029c9190611956565b6106a9565b6040516102af929190611acd565b60405180910390f35b3480156102c457600080fd5b506102cd610800565b6040516102da9190611872565b60405180910390f35b3480156102ef57600080fd5b506102f8610826565b6040516103059190611b0c565b60405180910390f35b34801561031a57600080fd5b5061033560048036038101906103309190611b65565b6108c9565b005b34801561034357600080fd5b5061034c6109d7565b6040516103599190611b0c565b60405180910390f35b34801561036e57600080fd5b5061038960048036038101906103849190611bd1565b6109dd565b005b34801561039757600080fd5b506103a0610a9d565b005b3480156103ae57600080fd5b506103b7610b25565b6040516103c49190611872565b60405180910390f35b3480156103d957600080fd5b506103f460048036038101906103ef9190611c4a565b610b4f565b005b34801561040257600080fd5b5061041d60048036038101906104189190611d2c565b610b56565b005b34801561042b57600080fd5b5061044660048036038101906104419190611d78565b610c16565b6040516104539190611dc1565b60405180910390f35b34801561046857600080fd5b50610471610c89565b60405161047e9190611872565b60405180910390f35b34801561049357600080fd5b5061049c610cb3565b6040516104a99190611872565b60405180910390f35b3480156104be57600080fd5b506104c7610cdc565b6040516104d49190611e27565b60405180910390f35b3480156104e957600080fd5b5061050460048036038101906104ff9190611e49565b610d19565b005b34801561051257600080fd5b5061051b610dd6565b6040516105289190611ef6565b60405180910390f35b34801561053d57600080fd5b50610546610e1c565b6040516105539190611b0c565b60405180910390f35b34801561056857600080fd5b50610583600480360381019061057e9190611e49565b610e22565b6040516105909190611f2a565b60405180910390f35b3480156105a557600080fd5b506105ae610e82565b6040516105bb9190611b0c565b60405180910390f35b3480156105d057600080fd5b506105eb60048036038101906105e69190611bd1565b610e89565b005b3480156105f957600080fd5b50610602610f49565b60405161060f9190611b0c565b60405180910390f35b34801561062457600080fd5b5061063f600480360381019061063a9190611bd1565b610f5d565b005b34801561064d57600080fd5b50610656611055565b6040516106639190611b0c565b60405180910390f35b34801561067857600080fd5b50610693600480360381019061068e9190611f45565b61105c565b6040516106a09190611dc1565b60405180910390f35b60606000604185859050146106f3576040517f08c379a00000000000000000000000000000000000000000000000000000000081526004016106ea90611fda565b60405180910390fd5b60006106fe89610e22565b905061074e8187878080601f016020809104026020016040519081016040528093929190818152602001838380828437600081840152601f19601f820116905080830192505050505050506110d5565b73ffffffffffffffffffffffffffffffffffffffff16600360009054906101000a900473ffffffffffffffffffffffffffffffffffffffff1673ffffffffffffffffffffffffffffffffffffffff16146107dd576040517f08c379a00000000000000000000000000000000000000000000000000000000081526004016107d490612046565b60405180910390fd5b600060405180602001604052806000815250909250925050965096945050505050565b600360009054906101000a900473ffffffffffffffffffffffffffffffffffffffff1681565b6000600160009054906101000a900473ffffffffffffffffffffffffffffffffffffffff1673ffffffffffffffffffffffffffffffffffffffff166370a08231306040518263ffffffff1660e01b81526004016108839190611872565b602060405180830381865afa1580156108a0573d6000803e3d6000fd5b505050506040513d601f19601f820116820180604052508101906108c4919061207b565b905090565b6108d16110fc565b73ffffffffffffffffffffffffffffffffffffffff166108ef610cb3565b73ffffffffffffffffffffffffffffffffffffffff1614610945576040517f08c379a000000000000000000000000000000000000000000000000000000000815260040161093c906120f4565b60405180910390fd5b600160009054906101000a900473ffffffffffffffffffffffffffffffffffffffff1673ffffffffffffffffffffffffffffffffffffffff1662f714ce83836040518363ffffffff1660e01b81526004016109a1929190612123565b600060405180830381600087803b1580156109bb57600080fd5b505af11580156109cf573d6000803e3d6000fd5b505050505050565b61290481565b6109e56110fc565b73ffffffffffffffffffffffffffffffffffffffff16610a03610cb3565b73ffffffffffffffffffffffffffffffffffffffff1614610a59576040517f08c379a0000000000000000000000000000000000000000000000000000000008152600401610a50906120f4565b60405180910390fd5b80600360006101000a81548173ffffffffffffffffffffffffffffffffffffffff021916908373ffffffffffffffffffffffffffffffffffffffff16021790555050565b610aa56110fc565b73ffffffffffffffffffffffffffffffffffffffff16610ac3610cb3565b73ffffffffffffffffffffffffffffffffffffffff1614610b19576040517f08c379a0000000000000000000000000000000000000000000000000000000008152600401610b10906120f4565b60405180910390fd5b610b236000611104565b565b6000600160009054906101000a900473ffffffffffffffffffffffffffffffffffffffff16905090565b5050505050565b610b5e6110fc565b73ffffffffffffffffffffffffffffffffffffffff16610b7c610cb3565b73ffffffffffffffffffffffffffffffffffffffff1614610bd2576040517f08c379a0000000000000000000000000000000000000000000000000000000008152600401610bc9906120f4565b60405180910390fd5b80600160006101000a81548173ffffffffffffffffffffffffffffffffffffffff021916908373ffffffffffffffffffffffffffffffffffffffff16021790555050565b6060816000016020810190610c2b9190611bd1565b826020016020810190610c3e9190611bd1565b836040013584606001358560800135868060a00190610c5d919061215b565b604051602001610c7397969594939291906121fa565b6040516020818303038152906040529050919050565b6000600260009054906101000a900473ffffffffffffffffffffffffffffffffffffffff16905090565b60008060009054906101000a900473ffffffffffffffffffffffffffffffffffffffff16905090565b60606040518060400160405280601c81526020017f322e322e302b6f70656e67736e2e76706d2e697061796d617374657200000000815250905090565b808060200190610d299190612264565b60a0016020810190610d3b9190611bd1565b73ffffffffffffffffffffffffffffffffffffffff16600260009054906101000a900473ffffffffffffffffffffffffffffffffffffffff1673ffffffffffffffffffffffffffffffffffffffff1614610dca576040517f08c379a0000000000000000000000000000000000000000000000000000000008152600401610dc1906122d9565b60405180910390fd5b610dd3816111c8565b50565b610dde61178c565b604051806080016040528061c350620186a0610dfa9190612328565b8152602001620186a081526020016201adb08152602001612904815250905090565b61c35081565b6000610e3c828060000190610e37919061237e565b610c16565b610e54838060200190610e4f9190612264565b61105c565b604051602001610e659291906123e2565b604051602081830303815290604052805190602001209050919050565b6201adb081565b610e916110fc565b73ffffffffffffffffffffffffffffffffffffffff16610eaf610cb3565b73ffffffffffffffffffffffffffffffffffffffff1614610f05576040517f08c379a0000000000000000000000000000000000000000000000000000000008152600401610efc906120f4565b60405180910390fd5b80600260006101000a81548173ffffffffffffffffffffffffffffffffffffffff021916908373ffffffffffffffffffffffffffffffffffffffff16021790555050565b61c350620186a0610f5a9190612328565b81565b610f656110fc565b73ffffffffffffffffffffffffffffffffffffffff16610f83610cb3565b73ffffffffffffffffffffffffffffffffffffffff1614610fd9576040517f08c379a0000000000000000000000000000000000000000000000000000000008152600401610fd0906120f4565b60405180910390fd5b600073ffffffffffffffffffffffffffffffffffffffff168173ffffffffffffffffffffffffffffffffffffffff161415611049576040517f08c379a000000000000000000000000000000000000000000000000000000000815260040161104090612478565b60405180910390fd5b61105281611104565b50565b620186a081565b60608160000135826020013583604001358460600160208101906110809190611bd1565b8560800160208101906110939190611bd1565b868060c001906110a3919061215b565b8860e001356040516020016110bf989796959493929190612498565b6040516020818303038152906040529050919050565b60008060006110e485856113c8565b915091506110f18161144b565b819250505092915050565b600033905090565b60008060009054906101000a900473ffffffffffffffffffffffffffffffffffffffff169050816000806101000a81548173ffffffffffffffffffffffffffffffffffffffff021916908373ffffffffffffffffffffffffffffffffffffffff1602179055508173ffffffffffffffffffffffffffffffffffffffff168173ffffffffffffffffffffffffffffffffffffffff167f8be0079c531659141344cd1fd0a4f28419497f9722a3daafe3b4186f6b6457e060405160405180910390a35050565b6000808280600001906111db919061237e565b60200160208101906111ed9190611bd1565b73ffffffffffffffffffffffffffffffffffffffff1663572b6c0560e01b84806020019061121b9190612264565b60a001602081019061122d9190611bd1565b60405160240161123d9190611872565b604051602081830303815290604052907bffffffffffffffffffffffffffffffffffffffffffffffffffffffff19166020820180517bffffffffffffffffffffffffffffffffffffffffffffffffffffffff83818316178352505050506040516112a79190612510565b600060405180830381855afa9150503d80600081146112e2576040519150601f19603f3d011682016040523d82523d6000602084013e6112e7565b606091505b50915091508161132c576040517f08c379a000000000000000000000000000000000000000000000000000000000815260040161132390612573565b60405180910390fd5b6020815114611370576040517f08c379a0000000000000000000000000000000000000000000000000000000008152600401611367906125df565b60405180910390fd5b808060200190518101906113849190612614565b6113c3576040517f08c379a00000000000000000000000000000000000000000000000000000000081526004016113ba9061268d565b60405180910390fd5b505050565b60008060418351141561140a5760008060006020860151925060408601519150606086015160001a90506113fe87828585611620565b94509450505050611444565b60408351141561143b57600080602085015191506040850151905061143086838361172d565b935093505050611444565b60006002915091505b9250929050565b6000600481111561145f5761145e6126ad565b5b816004811115611472576114716126ad565b5b141561147d5761161d565b60016004811115611491576114906126ad565b5b8160048111156114a4576114a36126ad565b5b14156114e5576040517f08c379a00000000000000000000000000000000000000000000000000000000081526004016114dc90612728565b60405180910390fd5b600260048111156114f9576114f86126ad565b5b81600481111561150c5761150b6126ad565b5b141561154d576040517f08c379a000000000000000000000000000000000000000000000000000000000815260040161154490612794565b60405180910390fd5b60036004811115611561576115606126ad565b5b816004811115611574576115736126ad565b5b14156115b5576040517f08c379a00000000000000000000000000000000000000000000000000000000081526004016115ac90612826565b60405180910390fd5b6004808111156115c8576115c76126ad565b5b8160048111156115db576115da6126ad565b5b141561161c576040517f08c379a0000000000000000000000000000000000000000000000000000000008152600401611613906128b8565b60405180910390fd5b5b50565b6000807f7fffffffffffffffffffffffffffffff5d576e7357a4501ddfe92f46681b20a08360001c111561165b576000600391509150611724565b601b8560ff16141580156116735750601c8560ff1614155b15611685576000600491509150611724565b6000600187878787604051600081526020016040526040516116aa94939291906128f4565b6020604051602081039080840390855afa1580156116cc573d6000803e3d6000fd5b505050602060405103519050600073ffffffffffffffffffffffffffffffffffffffff168173ffffffffffffffffffffffffffffffffffffffff16141561171b57600060019250925050611724565b80600092509250505b94509492505050565b60008060007f7fffffffffffffffffffffffffffffffffffffffffffffffffffffffffffffff60001b841690506000601b60ff8660001c901c6117709190612328565b905061177e87828885611620565b935093505050935093915050565b6040518060800160405280600081526020016000815260200160008152602001600081525090565b600082825260208201905092915050565b7f72656c6179206875622061646472657373206e6f742073657400000000000000600082015250565b60006117fb6019836117b4565b9150611806826117c5565b602082019050919050565b6000602082019050818103600083015261182a816117ee565b9050919050565b600073ffffffffffffffffffffffffffffffffffffffff82169050919050565b600061185c82611831565b9050919050565b61186c81611851565b82525050565b60006020820190506118876000830184611863565b92915050565b600080fd5b600080fd5b600080fd5b6000604082840312156118b2576118b1611897565b5b81905092915050565b600080fd5b600080fd5b600080fd5b60008083601f8401126118e0576118df6118bb565b5b8235905067ffffffffffffffff8111156118fd576118fc6118c0565b5b602083019150836001820283011115611919576119186118c5565b5b9250929050565b6000819050919050565b61193381611920565b811461193e57600080fd5b50565b6000813590506119508161192a565b92915050565b600080600080600080608087890312156119735761197261188d565b5b600087013567ffffffffffffffff81111561199157611990611892565b5b61199d89828a0161189c565b965050602087013567ffffffffffffffff8111156119be576119bd611892565b5b6119ca89828a016118ca565b9550955050604087013567ffffffffffffffff8111156119ed576119ec611892565b5b6119f989828a016118ca565b93509350506060611a0c89828a01611941565b9150509295509295509295565b600081519050919050565b600082825260208201905092915050565b60005b83811015611a53578082015181840152602081019050611a38565b83811115611a62576000848401525b50505050565b6000601f19601f8301169050919050565b6000611a8482611a19565b611a8e8185611a24565b9350611a9e818560208601611a35565b611aa781611a68565b840191505092915050565b60008115159050919050565b611ac781611ab2565b82525050565b60006040820190508181036000830152611ae78185611a79565b9050611af66020830184611abe565b9392505050565b611b0681611920565b82525050565b6000602082019050611b216000830184611afd565b92915050565b6000611b3282611831565b9050919050565b611b4281611b27565b8114611b4d57600080fd5b50565b600081359050611b5f81611b39565b92915050565b60008060408385031215611b7c57611b7b61188d565b5b6000611b8a85828601611941565b9250506020611b9b85828601611b50565b9150509250929050565b611bae81611851565b8114611bb957600080fd5b50565b600081359050611bcb81611ba5565b92915050565b600060208284031215611be757611be661188d565b5b6000611bf584828501611bbc565b91505092915050565b611c0781611ab2565b8114611c1257600080fd5b50565b600081359050611c2481611bfe565b92915050565b60006101008284031215611c4157611c40611897565b5b81905092915050565b600080600080600060808688031215611c6657611c6561188d565b5b600086013567ffffffffffffffff811115611c8457611c83611892565b5b611c90888289016118ca565b95509550506020611ca388828901611c15565b9350506040611cb488828901611941565b925050606086013567ffffffffffffffff811115611cd557611cd4611892565b5b611ce188828901611c2a565b9150509295509295909350565b6000611cf982611851565b9050919050565b611d0981611cee565b8114611d1457600080fd5b50565b600081359050611d2681611d00565b92915050565b600060208284031215611d4257611d4161188d565b5b6000611d5084828501611d17565b91505092915050565b600060e08284031215611d6f57611d6e611897565b5b81905092915050565b600060208284031215611d8e57611d8d61188d565b5b600082013567ffffffffffffffff811115611dac57611dab611892565b5b611db884828501611d59565b91505092915050565b60006020820190508181036000830152611ddb8184611a79565b905092915050565b600081519050919050565b6000611df982611de3565b611e0381856117b4565b9350611e13818560208601611a35565b611e1c81611a68565b840191505092915050565b60006020820190508181036000830152611e418184611dee565b905092915050565b600060208284031215611e5f57611e5e61188d565b5b600082013567ffffffffffffffff811115611e7d57611e7c611892565b5b611e898482850161189c565b91505092915050565b611e9b81611920565b82525050565b608082016000820151611eb76000850182611e92565b506020820151611eca6020850182611e92565b506040820151611edd6040850182611e92565b506060820151611ef06060850182611e92565b50505050565b6000608082019050611f0b6000830184611ea1565b92915050565b6000819050919050565b611f2481611f11565b82525050565b6000602082019050611f3f6000830184611f1b565b92915050565b600060208284031215611f5b57611f5a61188d565b5b600082013567ffffffffffffffff811115611f7957611f78611892565b5b611f8584828501611c2a565b91505092915050565b7f696e76616c696420617070726f76616c44617461207369676e61747572650000600082015250565b6000611fc4601e836117b4565b9150611fcf82611f8e565b602082019050919050565b60006020820190508181036000830152611ff381611fb7565b9050919050565b7f77726f6e6720617070726f76616c44617461207369676e617475726500000000600082015250565b6000612030601c836117b4565b915061203b82611ffa565b602082019050919050565b6000602082019050818103600083015261205f81612023565b9050919050565b6000815190506120758161192a565b92915050565b6000602082840312156120915761209061188d565b5b600061209f84828501612066565b91505092915050565b7f4f776e61626c653a2063616c6c6572206973206e6f7420746865206f776e6572600082015250565b60006120de6020836117b4565b91506120e9826120a8565b602082019050919050565b6000602082019050818103600083015261210d816120d1565b9050919050565b61211d81611b27565b82525050565b60006040820190506121386000830185611afd565b6121456020830184612114565b9392505050565b600080fd5b600080fd5b600080fd5b600080833560016020038436030381126121785761217761214c565b5b80840192508235915067ffffffffffffffff82111561219a57612199612151565b5b6020830192506001820236038313156121b6576121b5612156565b5b509250929050565b82818337600083830152505050565b60006121d98385611a24565b93506121e68385846121be565b6121ef83611a68565b840190509392505050565b600060c08201905061220f600083018a611863565b61221c6020830189611863565b6122296040830188611afd565b6122366060830187611afd565b6122436080830186611afd565b81810360a08301526122568184866121cd565b905098975050505050505050565b600082356001610100038336030381126122815761228061214c565b5b80830191505092915050565b7f466f72776172646572206973206e6f7420747275737465640000000000000000600082015250565b60006122c36018836117b4565b91506122ce8261228d565b602082019050919050565b600060208201905081810360008301526122f2816122b6565b9050919050565b7f4e487b7100000000000000000000000000000000000000000000000000000000600052601160045260246000fd5b600061233382611920565b915061233e83611920565b9250827fffffffffffffffffffffffffffffffffffffffffffffffffffffffffffffffff03821115612373576123726122f9565b5b828201905092915050565b60008235600160e00383360303811261239a5761239961214c565b5b80830191505092915050565b600081905092915050565b60006123bc82611a19565b6123c681856123a6565b93506123d6818560208601611a35565b80840191505092915050565b60006123ee82856123b1565b91506123fa82846123b1565b91508190509392505050565b7f4f776e61626c653a206e6577206f776e657220697320746865207a65726f206160008201527f6464726573730000000000000000000000000000000000000000000000000000602082015250565b60006124626026836117b4565b915061246d82612406565b604082019050919050565b6000602082019050818103600083015261249181612455565b9050919050565b600060e0820190506124ad600083018b611afd565b6124ba602083018a611afd565b6124c76040830189611afd565b6124d46060830188611863565b6124e16080830187611863565b81810360a08301526124f48185876121cd565b905061250360c0830184611afd565b9998505050505050505050565b600061251c82846123b1565b915081905092915050565b7f697354727573746564466f727761726465723a20726576657274656400000000600082015250565b600061255d601c836117b4565b915061256882612527565b602082019050919050565b6000602082019050818103600083015261258c81612550565b9050919050565b7f697354727573746564466f727761726465723a2062616420726573706f6e7365600082015250565b60006125c96020836117b4565b91506125d482612593565b602082019050919050565b600060208201905081810360008301526125f8816125bc565b9050919050565b60008151905061260e81611bfe565b92915050565b60006020828403121561262a5761262961188d565b5b6000612638848285016125ff565b91505092915050565b7f696e76616c696420666f7277617264657220666f7220726563697069656e7400600082015250565b6000612677601f836117b4565b915061268282612641565b602082019050919050565b600060208201905081810360008301526126a68161266a565b9050919050565b7f4e487b7100000000000000000000000000000000000000000000000000000000600052602160045260246000fd5b7f45434453413a20696e76616c6964207369676e61747572650000000000000000600082015250565b60006127126018836117b4565b915061271d826126dc565b602082019050919050565b6000602082019050818103600083015261274181612705565b9050919050565b7f45434453413a20696e76616c6964207369676e6174757265206c656e67746800600082015250565b600061277e601f836117b4565b915061278982612748565b602082019050919050565b600060208201905081810360008301526127ad81612771565b9050919050565b7f45434453413a20696e76616c6964207369676e6174757265202773272076616c60008201527f7565000000000000000000000000000000000000000000000000000000000000602082015250565b60006128106022836117b4565b915061281b826127b4565b604082019050919050565b6000602082019050818103600083015261283f81612803565b9050919050565b7f45434453413a20696e76616c6964207369676e6174757265202776272076616c60008201527f7565000000000000000000000000000000000000000000000000000000000000602082015250565b60006128a26022836117b4565b91506128ad82612846565b604082019050919050565b600060208201905081810360008301526128d181612895565b9050919050565b600060ff82169050919050565b6128ee816128d8565b82525050565b60006080820190506129096000830187611f1b565b61291660208301866128e5565b6129236040830185611f1b565b6129306060830184611f1b565b9594505050505056fea2646970667358221220fe808ee0ae3e243f14ff1e3f4ad5a7e8af76322483402a7557547ef5a18dcea264736f6c634300080a0033",
  "linkReferences": {},
  "deployedLinkReferences": {}
}