{
  "_format": "hh-sol-artifact-1",
  "contractName": "ZenoERC721",
  "sourceName": "contracts/ZenoERC721.sol",
  "abi": [
    {
      "inputs": [
        {
          "internalType": "address",
          "name": "trustedForwarder",
          "type": "address"
        }
      ],
      "stateMutability": "nonpayable",
      "type": "constructor"
    },
    {
      "anonymous": false,
      "inputs": [
        {
          "indexed": true,
          "internalType": "address",
          "name": "owner",
          "type": "address"
        },
        {
          "indexed": true,
          "internalType": "address",
          "name": "approved",
          "type": "address"
        },
        {
          "indexed": true,
          "internalType": "uint256",
          "name": "tokenId",
          "type": "uint256"
        }
      ],
      "name": "Approval",
      "type": "event"
    },
    {
      "anonymous": false,
      "inputs": [
        {
          "indexed": true,
          "internalType": "address",
          "name": "owner",
          "type": "address"
        },
        {
          "indexed": true,
          "internalType": "address",
          "name": "operator",
          "type": "address"
        },
        {
          "indexed": false,
          "internalType": "bool",
          "name": "approved",
          "type": "bool"
        }
      ],
      "name": "ApprovalForAll",
      "type": "event"
    },
    {
      "anonymous": false,
      "inputs": [
        {
          "indexed": false,
          "internalType": "address",
          "name": "previousHolder",
          "type": "address"
        },
        {
          "indexed": false,
          "internalType": "address",
          "name": "currentHolder",
          "type": "address"
        },
        {
          "indexed": false,
          "internalType": "address",
          "name": "client",
          "type": "address"
        },
        {
          "indexed": false,
          "internalType": "uint256",
          "name": "itemId",
          "type": "uint256"
        }
      ],
      "name": "BusinessNFTMinted",
      "type": "event"
    },
    {
      "anonymous": false,
      "inputs": [
        {
          "indexed": true,
          "internalType": "address",
          "name": "from",
          "type": "address"
        },
        {
          "indexed": true,
          "internalType": "address",
          "name": "to",
          "type": "address"
        },
        {
          "indexed": true,
          "internalType": "uint256",
          "name": "tokenId",
          "type": "uint256"
        }
      ],
      "name": "Transfer",
      "type": "event"
    },
    {
      "inputs": [
        {
          "internalType": "address",
          "name": "to",
          "type": "address"
        },
        {
          "internalType": "uint256",
          "name": "tokenId",
          "type": "uint256"
        }
      ],
      "name": "approve",
      "outputs": [],
      "stateMutability": "nonpayable",
      "type": "function"
    },
    {
      "inputs": [
        {
          "internalType": "address",
          "name": "owner",
          "type": "address"
        }
      ],
      "name": "balanceOf",
      "outputs": [
        {
          "internalType": "uint256",
          "name": "",
          "type": "uint256"
        }
      ],
      "stateMutability": "view",
      "type": "function"
    },
    {
      "inputs": [
        {
          "internalType": "uint256",
          "name": "tokenId",
          "type": "uint256"
        }
      ],
      "name": "getApproved",
      "outputs": [
        {
          "internalType": "address",
          "name": "",
          "type": "address"
        }
      ],
      "stateMutability": "view",
      "type": "function"
    },
    {
      "inputs": [
        {
          "internalType": "address",
          "name": "owner",
          "type": "address"
        },
        {
          "internalType": "address",
          "name": "operator",
          "type": "address"
        }
      ],
      "name": "isApprovedForAll",
      "outputs": [
        {
          "internalType": "bool",
          "name": "",
          "type": "bool"
        }
      ],
      "stateMutability": "view",
      "type": "function"
    },
    {
      "inputs": [
        {
          "internalType": "address",
          "name": "forwarder",
          "type": "address"
        }
      ],
      "name": "isTrustedForwarder",
      "outputs": [
        {
          "internalType": "bool",
          "name": "",
          "type": "bool"
        }
      ],
      "stateMutability": "view",
      "type": "function"
    },
    {
      "inputs": [
        {
          "internalType": "address",
          "name": "client",
          "type": "address"
        },
        {
          "internalType": "string",
          "name": "tokenURI",
          "type": "string"
        }
      ],
      "name": "mintBusinessNFT",
      "outputs": [
        {
          "internalType": "uint256",
          "name": "",
          "type": "uint256"
        }
      ],
      "stateMutability": "nonpayable",
      "type": "function"
    },
    {
      "inputs": [],
      "name": "name",
      "outputs": [
        {
          "internalType": "string",
          "name": "",
          "type": "string"
        }
      ],
      "stateMutability": "view",
      "type": "function"
    },
    {
      "inputs": [
        {
          "internalType": "uint256",
          "name": "tokenId",
          "type": "uint256"
        }
      ],
      "name": "ownerOf",
      "outputs": [
        {
          "internalType": "address",
          "name": "",
          "type": "address"
        }
      ],
      "stateMutability": "view",
      "type": "function"
    },
    {
      "inputs": [
        {
          "internalType": "address",
          "name": "from",
          "type": "address"
        },
        {
          "internalType": "address",
          "name": "to",
          "type": "address"
        },
        {
          "internalType": "uint256",
          "name": "tokenId",
          "type": "uint256"
        }
      ],
      "name": "safeTransferFrom",
      "outputs": [],
      "stateMutability": "nonpayable",
      "type": "function"
    },
    {
      "inputs": [
        {
          "internalType": "address",
          "name": "from",
          "type": "address"
        },
        {
          "internalType": "address",
          "name": "to",
          "type": "address"
        },
        {
          "internalType": "uint256",
          "name": "tokenId",
          "type": "uint256"
        },
        {
          "internalType": "bytes",
          "name": "_data",
          "type": "bytes"
        }
      ],
      "name": "safeTransferFrom",
      "outputs": [],
      "stateMutability": "nonpayable",
      "type": "function"
    },
    {
      "inputs": [
        {
          "internalType": "address",
          "name": "operator",
          "type": "address"
        },
        {
          "internalType": "bool",
          "name": "approved",
          "type": "bool"
        }
      ],
      "name": "setApprovalForAll",
      "outputs": [],
      "stateMutability": "nonpayable",
      "type": "function"
    },
    {
      "inputs": [
        {
          "internalType": "bytes4",
          "name": "interfaceId",
          "type": "bytes4"
        }
      ],
      "name": "supportsInterface",
      "outputs": [
        {
          "internalType": "bool",
          "name": "",
          "type": "bool"
        }
      ],
      "stateMutability": "view",
      "type": "function"
    },
    {
      "inputs": [],
      "name": "symbol",
      "outputs": [
        {
          "internalType": "string",
          "name": "",
          "type": "string"
        }
      ],
      "stateMutability": "view",
      "type": "function"
    },
    {
      "inputs": [
        {
          "internalType": "uint256",
          "name": "tokenId",
          "type": "uint256"
        }
      ],
      "name": "tokenURI",
      "outputs": [
        {
          "internalType": "string",
          "name": "",
          "type": "string"
        }
      ],
      "stateMutability": "view",
      "type": "function"
    },
    {
      "inputs": [
        {
          "internalType": "address",
          "name": "from",
          "type": "address"
        },
        {
          "internalType": "address",
          "name": "to",
          "type": "address"
        },
        {
          "internalType": "uint256",
          "name": "tokenId",
          "type": "uint256"
        }
      ],
      "name": "transferFrom",
      "outputs": [],
      "stateMutability": "nonpayable",
      "type": "function"
    },
    {
      "inputs": [],
      "name": "trustedForwarder",
      "outputs": [
        {
          "internalType": "address",
          "name": "",
          "type": "address"
        }
      ],
      "stateMutability": "view",
      "type": "function"
    },
    {
      "inputs": [],
      "name": "versionRecipient",
      "outputs": [
        {
          "internalType": "string",
          "name": "",
          "type": "string"
        }
      ],
      "stateMutability": "view",
      "type": "function"
    }
  ],
  "bytecode": "0x60806040523480156200001157600080fd5b50604051620030cb380380620030cb83398181016040528101906200003791906200024d565b6040518060400160405280600781526020017f5a656e6f4e4654000000000000000000000000000000000000000000000000008152506040518060400160405280600481526020017f5a454e4f000000000000000000000000000000000000000000000000000000008152508160009080519060200190620000bb92919062000133565b508060019080519060200190620000d492919062000133565b505050620000e881620000ef60201b60201c565b50620002e4565b80600760006101000a81548173ffffffffffffffffffffffffffffffffffffffff021916908373ffffffffffffffffffffffffffffffffffffffff16021790555050565b8280546200014190620002ae565b90600052602060002090601f016020900481019282620001655760008555620001b1565b82601f106200018057805160ff1916838001178555620001b1565b82800160010185558215620001b1579182015b82811115620001b057825182559160200191906001019062000193565b5b509050620001c09190620001c4565b5090565b5b80821115620001df576000816000905550600101620001c5565b5090565b600080fd5b600073ffffffffffffffffffffffffffffffffffffffff82169050919050565b60006200021582620001e8565b9050919050565b620002278162000208565b81146200023357600080fd5b50565b60008151905062000247816200021c565b92915050565b600060208284031215620002665762000265620001e3565b5b6000620002768482850162000236565b91505092915050565b7f4e487b7100000000000000000000000000000000000000000000000000000000600052602260045260246000fd5b60006002820490506001821680620002c757607f821691505b60208210811415620002de57620002dd6200027f565b5b50919050565b612dd780620002f46000396000f3fe608060405234801561001057600080fd5b506004361061010b5760003560e01c8063595edcdd116100a257806395d89b411161007157806395d89b41146102de578063a22cb465146102fc578063b88d4fde14610318578063c87b56dd14610334578063e985e9c5146103645761010b565b8063595edcdd146102305780636352211e1461026057806370a08231146102905780637da0a877146102c05761010b565b806323b872dd116100de57806323b872dd146101aa57806342842e0e146101c6578063486ff0cd146101e2578063572b6c05146102005761010b565b806301ffc9a71461011057806306fdde0314610140578063081812fc1461015e578063095ea7b31461018e575b600080fd5b61012a60048036038101906101259190611af4565b610394565b6040516101379190611b3c565b60405180910390f35b610148610476565b6040516101559190611bf0565b60405180910390f35b61017860048036038101906101739190611c48565b610508565b6040516101859190611cb6565b60405180910390f35b6101a860048036038101906101a39190611cfd565b61058d565b005b6101c460048036038101906101bf9190611d3d565b6106a5565b005b6101e060048036038101906101db9190611d3d565b610705565b005b6101ea610725565b6040516101f79190611bf0565b60405180910390f35b61021a60048036038101906102159190611d90565b610762565b6040516102279190611b3c565b60405180910390f35b61024a60048036038101906102459190611ef2565b6107bc565b6040516102579190611f5d565b60405180910390f35b61027a60048036038101906102759190611c48565b610838565b6040516102879190611cb6565b60405180910390f35b6102aa60048036038101906102a59190611d90565b6108ea565b6040516102b79190611f5d565b60405180910390f35b6102c86109a2565b6040516102d59190611cb6565b60405180910390f35b6102e66109cc565b6040516102f39190611bf0565b60405180910390f35b61031660048036038101906103119190611fa4565b610a5e565b005b610332600480360381019061032d9190612085565b610a74565b005b61034e60048036038101906103499190611c48565b610ad6565b60405161035b9190611bf0565b60405180910390f35b61037e60048036038101906103799190612108565b610c28565b60405161038b9190611b3c565b60405180910390f35b60007f80ac58cd000000000000000000000000000000000000000000000000000000007bffffffffffffffffffffffffffffffffffffffffffffffffffffffff1916827bffffffffffffffffffffffffffffffffffffffffffffffffffffffff1916148061045f57507f5b5e139f000000000000000000000000000000000000000000000000000000007bffffffffffffffffffffffffffffffffffffffffffffffffffffffff1916827bffffffffffffffffffffffffffffffffffffffffffffffffffffffff1916145b8061046f575061046e82610cbc565b5b9050919050565b60606000805461048590612177565b80601f01602080910402602001604051908101604052809291908181526020018280546104b190612177565b80156104fe5780601f106104d3576101008083540402835291602001916104fe565b820191906000526020600020905b8154815290600101906020018083116104e157829003601f168201915b5050505050905090565b600061051382610d26565b610552576040517f08c379a00000000000000000000000000000000000000000000000000000000081526004016105499061221b565b60405180910390fd5b6004600083815260200190815260200160002060009054906101000a900473ffffffffffffffffffffffffffffffffffffffff169050919050565b600061059882610838565b90508073ffffffffffffffffffffffffffffffffffffffff168373ffffffffffffffffffffffffffffffffffffffff161415610609576040517f08c379a0000000000000000000000000000000000000000000000000000000008152600401610600906122ad565b60405180910390fd5b8073ffffffffffffffffffffffffffffffffffffffff16610628610d92565b73ffffffffffffffffffffffffffffffffffffffff161480610657575061065681610651610d92565b610c28565b5b610696576040517f08c379a000000000000000000000000000000000000000000000000000000000815260040161068d9061233f565b60405180910390fd5b6106a08383610da1565b505050565b6106b66106b0610d92565b82610e5a565b6106f5576040517f08c379a00000000000000000000000000000000000000000000000000000000081526004016106ec906123d1565b60405180910390fd5b610700838383610f38565b505050565b61072083838360405180602001604052806000815250610a74565b505050565b60606040518060400160405280601c81526020017f322e322e302b6f70656e67736e2e76706d2e697061796d617374657200000000815250905090565b6000600760009054906101000a900473ffffffffffffffffffffffffffffffffffffffff1673ffffffffffffffffffffffffffffffffffffffff168273ffffffffffffffffffffffffffffffffffffffff16149050919050565b60006107c8600861119f565b60006107d460086111b5565b90506107e084826111c3565b6107ea818461139d565b7f4f30bca948611b93dff2e11f0023a92a3c0f6b540fd42f05ea5a3165874db21733610814610d92565b868460405161082694939291906123f1565b60405180910390a18091505092915050565b6000806002600084815260200190815260200160002060009054906101000a900473ffffffffffffffffffffffffffffffffffffffff169050600073ffffffffffffffffffffffffffffffffffffffff168173ffffffffffffffffffffffffffffffffffffffff1614156108e1576040517f08c379a00000000000000000000000000000000000000000000000000000000081526004016108d8906124a8565b60405180910390fd5b80915050919050565b60008073ffffffffffffffffffffffffffffffffffffffff168273ffffffffffffffffffffffffffffffffffffffff16141561095b576040517f08c379a00000000000000000000000000000000000000000000000000000000081526004016109529061253a565b60405180910390fd5b600360008373ffffffffffffffffffffffffffffffffffffffff1673ffffffffffffffffffffffffffffffffffffffff168152602001908152602001600020549050919050565b6000600760009054906101000a900473ffffffffffffffffffffffffffffffffffffffff16905090565b6060600180546109db90612177565b80601f0160208091040260200160405190810160405280929190818152602001828054610a0790612177565b8015610a545780601f10610a2957610100808354040283529160200191610a54565b820191906000526020600020905b815481529060010190602001808311610a3757829003601f168201915b5050505050905090565b610a70610a69610d92565b8383611411565b5050565b610a85610a7f610d92565b83610e5a565b610ac4576040517f08c379a0000000000000000000000000000000000000000000000000000000008152600401610abb906123d1565b60405180910390fd5b610ad08484848461157e565b50505050565b6060610ae182610d26565b610b20576040517f08c379a0000000000000000000000000000000000000000000000000000000008152600401610b17906125cc565b60405180910390fd5b6000600660008481526020019081526020016000208054610b4090612177565b80601f0160208091040260200160405190810160405280929190818152602001828054610b6c90612177565b8015610bb95780601f10610b8e57610100808354040283529160200191610bb9565b820191906000526020600020905b815481529060010190602001808311610b9c57829003601f168201915b505050505090506000610bca6115da565b9050600081511415610be0578192505050610c23565b600082511115610c15578082604051602001610bfd929190612628565b60405160208183030381529060405292505050610c23565b610c1e846115f1565b925050505b919050565b6000600560008473ffffffffffffffffffffffffffffffffffffffff1673ffffffffffffffffffffffffffffffffffffffff16815260200190815260200160002060008373ffffffffffffffffffffffffffffffffffffffff1673ffffffffffffffffffffffffffffffffffffffff16815260200190815260200160002060009054906101000a900460ff16905092915050565b60007f01ffc9a7000000000000000000000000000000000000000000000000000000007bffffffffffffffffffffffffffffffffffffffffffffffffffffffff1916827bffffffffffffffffffffffffffffffffffffffffffffffffffffffff1916149050919050565b60008073ffffffffffffffffffffffffffffffffffffffff166002600084815260200190815260200160002060009054906101000a900473ffffffffffffffffffffffffffffffffffffffff1673ffffffffffffffffffffffffffffffffffffffff1614159050919050565b6000610d9c611698565b905090565b816004600083815260200190815260200160002060006101000a81548173ffffffffffffffffffffffffffffffffffffffff021916908373ffffffffffffffffffffffffffffffffffffffff160217905550808273ffffffffffffffffffffffffffffffffffffffff16610e1483610838565b73ffffffffffffffffffffffffffffffffffffffff167f8c5be1e5ebec7d5bd14f71427d1e84f3dd0314c0f7b2291e5b200ac8c7c3b92560405160405180910390a45050565b6000610e6582610d26565b610ea4576040517f08c379a0000000000000000000000000000000000000000000000000000000008152600401610e9b906126be565b60405180910390fd5b6000610eaf83610838565b90508073ffffffffffffffffffffffffffffffffffffffff168473ffffffffffffffffffffffffffffffffffffffff161480610f1e57508373ffffffffffffffffffffffffffffffffffffffff16610f0684610508565b73ffffffffffffffffffffffffffffffffffffffff16145b80610f2f5750610f2e8185610c28565b5b91505092915050565b8273ffffffffffffffffffffffffffffffffffffffff16610f5882610838565b73ffffffffffffffffffffffffffffffffffffffff1614610fae576040517f08c379a0000000000000000000000000000000000000000000000000000000008152600401610fa590612750565b60405180910390fd5b600073ffffffffffffffffffffffffffffffffffffffff168273ffffffffffffffffffffffffffffffffffffffff16141561101e576040517f08c379a0000000000000000000000000000000000000000000000000000000008152600401611015906127e2565b60405180910390fd5b6110298383836116cf565b611034600082610da1565b6001600360008573ffffffffffffffffffffffffffffffffffffffff1673ffffffffffffffffffffffffffffffffffffffff16815260200190815260200160002060008282546110849190612831565b925050819055506001600360008473ffffffffffffffffffffffffffffffffffffffff1673ffffffffffffffffffffffffffffffffffffffff16815260200190815260200160002060008282546110db9190612865565b92505081905550816002600083815260200190815260200160002060006101000a81548173ffffffffffffffffffffffffffffffffffffffff021916908373ffffffffffffffffffffffffffffffffffffffff160217905550808273ffffffffffffffffffffffffffffffffffffffff168473ffffffffffffffffffffffffffffffffffffffff167fddf252ad1be2c89b69c2b068fc378daa952ba7f163c4a11628f55a4df523b3ef60405160405180910390a461119a8383836116d4565b505050565b6001816000016000828254019250508190555050565b600081600001549050919050565b600073ffffffffffffffffffffffffffffffffffffffff168273ffffffffffffffffffffffffffffffffffffffff161415611233576040517f08c379a000000000000000000000000000000000000000000000000000000000815260040161122a90612907565b60405180910390fd5b61123c81610d26565b1561127c576040517f08c379a000000000000000000000000000000000000000000000000000000000815260040161127390612973565b60405180910390fd5b611288600083836116cf565b6001600360008473ffffffffffffffffffffffffffffffffffffffff1673ffffffffffffffffffffffffffffffffffffffff16815260200190815260200160002060008282546112d89190612865565b92505081905550816002600083815260200190815260200160002060006101000a81548173ffffffffffffffffffffffffffffffffffffffff021916908373ffffffffffffffffffffffffffffffffffffffff160217905550808273ffffffffffffffffffffffffffffffffffffffff16600073ffffffffffffffffffffffffffffffffffffffff167fddf252ad1be2c89b69c2b068fc378daa952ba7f163c4a11628f55a4df523b3ef60405160405180910390a4611399600083836116d4565b5050565b6113a682610d26565b6113e5576040517f08c379a00000000000000000000000000000000000000000000000000000000081526004016113dc90612a05565b60405180910390fd5b8060066000848152602001908152602001600020908051906020019061140c9291906119e5565b505050565b8173ffffffffffffffffffffffffffffffffffffffff168373ffffffffffffffffffffffffffffffffffffffff161415611480576040517f08c379a000000000000000000000000000000000000000000000000000000000815260040161147790612a71565b60405180910390fd5b80600560008573ffffffffffffffffffffffffffffffffffffffff1673ffffffffffffffffffffffffffffffffffffffff16815260200190815260200160002060008473ffffffffffffffffffffffffffffffffffffffff1673ffffffffffffffffffffffffffffffffffffffff16815260200190815260200160002060006101000a81548160ff0219169083151502179055508173ffffffffffffffffffffffffffffffffffffffff168373ffffffffffffffffffffffffffffffffffffffff167f17307eab39ab6107e8899845ad3d59bd9653f200f220920489ca2b5937696c31836040516115719190611b3c565b60405180910390a3505050565b611589848484610f38565b611595848484846116d9565b6115d4576040517f08c379a00000000000000000000000000000000000000000000000000000000081526004016115cb90612b03565b60405180910390fd5b50505050565b606060405180602001604052806000815250905090565b60606115fc82610d26565b61163b576040517f08c379a000000000000000000000000000000000000000000000000000000000815260040161163290612b95565b60405180910390fd5b60006116456115da565b905060008151116116655760405180602001604052806000815250611690565b8061166f84611861565b604051602001611680929190612628565b6040516020818303038152906040525b915050919050565b600060146000369050101580156116b457506116b333610762565b5b156116c857601436033560601c90506116cc565b3390505b90565b505050565b505050565b60006116fa8473ffffffffffffffffffffffffffffffffffffffff166119c2565b15611854578373ffffffffffffffffffffffffffffffffffffffff1663150b7a02611723610d92565b8786866040518563ffffffff1660e01b81526004016117459493929190612c0a565b6020604051808303816000875af192505050801561178157506040513d601f19601f8201168201806040525081019061177e9190612c6b565b60015b611804573d80600081146117b1576040519150601f19603f3d011682016040523d82523d6000602084013e6117b6565b606091505b506000815114156117fc576040517f08c379a00000000000000000000000000000000000000000000000000000000081526004016117f390612b03565b60405180910390fd5b805181602001fd5b63150b7a0260e01b7bffffffffffffffffffffffffffffffffffffffffffffffffffffffff1916817bffffffffffffffffffffffffffffffffffffffffffffffffffffffff191614915050611859565b600190505b949350505050565b606060008214156118a9576040518060400160405280600181526020017f300000000000000000000000000000000000000000000000000000000000000081525090506119bd565b600082905060005b600082146118db5780806118c490612c98565b915050600a826118d49190612d10565b91506118b1565b60008167ffffffffffffffff8111156118f7576118f6611dc7565b5b6040519080825280601f01601f1916602001820160405280156119295781602001600182028036833780820191505090505b5090505b600085146119b6576001826119429190612831565b9150600a856119519190612d41565b603061195d9190612865565b60f81b81838151811061197357611972612d72565b5b60200101907effffffffffffffffffffffffffffffffffffffffffffffffffffffffffffff1916908160001a905350600a856119af9190612d10565b945061192d565b8093505050505b919050565b6000808273ffffffffffffffffffffffffffffffffffffffff163b119050919050565b8280546119f190612177565b90600052602060002090601f016020900481019282611a135760008555611a5a565b82601f10611a2c57805160ff1916838001178555611a5a565b82800160010185558215611a5a579182015b82811115611a59578251825591602001919060010190611a3e565b5b509050611a679190611a6b565b5090565b5b80821115611a84576000816000905550600101611a6c565b5090565b6000604051905090565b600080fd5b600080fd5b60007fffffffff0000000000000000000000000000000000000000000000000000000082169050919050565b611ad181611a9c565b8114611adc57600080fd5b50565b600081359050611aee81611ac8565b92915050565b600060208284031215611b0a57611b09611a92565b5b6000611b1884828501611adf565b91505092915050565b60008115159050919050565b611b3681611b21565b82525050565b6000602082019050611b516000830184611b2d565b92915050565b600081519050919050565b600082825260208201905092915050565b60005b83811015611b91578082015181840152602081019050611b76565b83811115611ba0576000848401525b50505050565b6000601f19601f8301169050919050565b6000611bc282611b57565b611bcc8185611b62565b9350611bdc818560208601611b73565b611be581611ba6565b840191505092915050565b60006020820190508181036000830152611c0a8184611bb7565b905092915050565b6000819050919050565b611c2581611c12565b8114611c3057600080fd5b50565b600081359050611c4281611c1c565b92915050565b600060208284031215611c5e57611c5d611a92565b5b6000611c6c84828501611c33565b91505092915050565b600073ffffffffffffffffffffffffffffffffffffffff82169050919050565b6000611ca082611c75565b9050919050565b611cb081611c95565b82525050565b6000602082019050611ccb6000830184611ca7565b92915050565b611cda81611c95565b8114611ce557600080fd5b50565b600081359050611cf781611cd1565b92915050565b60008060408385031215611d1457611d13611a92565b5b6000611d2285828601611ce8565b9250506020611d3385828601611c33565b9150509250929050565b600080600060608486031215611d5657611d55611a92565b5b6000611d6486828701611ce8565b9350506020611d7586828701611ce8565b9250506040611d8686828701611c33565b9150509250925092565b600060208284031215611da657611da5611a92565b5b6000611db484828501611ce8565b91505092915050565b600080fd5b600080fd5b7f4e487b7100000000000000000000000000000000000000000000000000000000600052604160045260246000fd5b611dff82611ba6565b810181811067ffffffffffffffff82111715611e1e57611e1d611dc7565b5b80604052505050565b6000611e31611a88565b9050611e3d8282611df6565b919050565b600067ffffffffffffffff821115611e5d57611e5c611dc7565b5b611e6682611ba6565b9050602081019050919050565b82818337600083830152505050565b6000611e95611e9084611e42565b611e27565b905082815260208101848484011115611eb157611eb0611dc2565b5b611ebc848285611e73565b509392505050565b600082601f830112611ed957611ed8611dbd565b5b8135611ee9848260208601611e82565b91505092915050565b60008060408385031215611f0957611f08611a92565b5b6000611f1785828601611ce8565b925050602083013567ffffffffffffffff811115611f3857611f37611a97565b5b611f4485828601611ec4565b9150509250929050565b611f5781611c12565b82525050565b6000602082019050611f726000830184611f4e565b92915050565b611f8181611b21565b8114611f8c57600080fd5b50565b600081359050611f9e81611f78565b92915050565b60008060408385031215611fbb57611fba611a92565b5b6000611fc985828601611ce8565b9250506020611fda85828601611f8f565b9150509250929050565b600067ffffffffffffffff821115611fff57611ffe611dc7565b5b61200882611ba6565b9050602081019050919050565b600061202861202384611fe4565b611e27565b90508281526020810184848401111561204457612043611dc2565b5b61204f848285611e73565b509392505050565b600082601f83011261206c5761206b611dbd565b5b813561207c848260208601612015565b91505092915050565b6000806000806080858703121561209f5761209e611a92565b5b60006120ad87828801611ce8565b94505060206120be87828801611ce8565b93505060406120cf87828801611c33565b925050606085013567ffffffffffffffff8111156120f0576120ef611a97565b5b6120fc87828801612057565b91505092959194509250565b6000806040838503121561211f5761211e611a92565b5b600061212d85828601611ce8565b925050602061213e85828601611ce8565b9150509250929050565b7f4e487b7100000000000000000000000000000000000000000000000000000000600052602260045260246000fd5b6000600282049050600182168061218f57607f821691505b602082108114156121a3576121a2612148565b5b50919050565b7f4552433732313a20617070726f76656420717565727920666f72206e6f6e657860008201527f697374656e7420746f6b656e0000000000000000000000000000000000000000602082015250565b6000612205602c83611b62565b9150612210826121a9565b604082019050919050565b60006020820190508181036000830152612234816121f8565b9050919050565b7f4552433732313a20617070726f76616c20746f2063757272656e74206f776e6560008201527f7200000000000000000000000000000000000000000000000000000000000000602082015250565b6000612297602183611b62565b91506122a28261223b565b604082019050919050565b600060208201905081810360008301526122c68161228a565b9050919050565b7f4552433732313a20617070726f76652063616c6c6572206973206e6f74206f7760008201527f6e6572206e6f7220617070726f76656420666f7220616c6c0000000000000000602082015250565b6000612329603883611b62565b9150612334826122cd565b604082019050919050565b600060208201905081810360008301526123588161231c565b9050919050565b7f4552433732313a207472616e736665722063616c6c6572206973206e6f74206f60008201527f776e6572206e6f7220617070726f766564000000000000000000000000000000602082015250565b60006123bb603183611b62565b91506123c68261235f565b604082019050919050565b600060208201905081810360008301526123ea816123ae565b9050919050565b60006080820190506124066000830187611ca7565b6124136020830186611ca7565b6124206040830185611ca7565b61242d6060830184611f4e565b95945050505050565b7f4552433732313a206f776e657220717565727920666f72206e6f6e657869737460008201527f656e7420746f6b656e0000000000000000000000000000000000000000000000602082015250565b6000612492602983611b62565b915061249d82612436565b604082019050919050565b600060208201905081810360008301526124c181612485565b9050919050565b7f4552433732313a2062616c616e636520717565727920666f7220746865207a6560008201527f726f206164647265737300000000000000000000000000000000000000000000602082015250565b6000612524602a83611b62565b915061252f826124c8565b604082019050919050565b6000602082019050818103600083015261255381612517565b9050919050565b7f45524337323155524953746f726167653a2055524920717565727920666f722060008201527f6e6f6e6578697374656e7420746f6b656e000000000000000000000000000000602082015250565b60006125b6603183611b62565b91506125c18261255a565b604082019050919050565b600060208201905081810360008301526125e5816125a9565b9050919050565b600081905092915050565b600061260282611b57565b61260c81856125ec565b935061261c818560208601611b73565b80840191505092915050565b600061263482856125f7565b915061264082846125f7565b91508190509392505050565b7f4552433732313a206f70657261746f7220717565727920666f72206e6f6e657860008201527f697374656e7420746f6b656e0000000000000000000000000000000000000000602082015250565b60006126a8602c83611b62565b91506126b38261264c565b604082019050919050565b600060208201905081810360008301526126d78161269b565b9050919050565b7f4552433732313a207472616e736665722066726f6d20696e636f72726563742060008201527f6f776e6572000000000000000000000000000000000000000000000000000000602082015250565b600061273a602583611b62565b9150612745826126de565b604082019050919050565b600060208201905081810360008301526127698161272d565b9050919050565b7f4552433732313a207472616e7366657220746f20746865207a65726f2061646460008201527f7265737300000000000000000000000000000000000000000000000000000000602082015250565b60006127cc602483611b62565b91506127d782612770565b604082019050919050565b600060208201905081810360008301526127fb816127bf565b9050919050565b7f4e487b7100000000000000000000000000000000000000000000000000000000600052601160045260246000fd5b600061283c82611c12565b915061284783611c12565b92508282101561285a57612859612802565b5b828203905092915050565b600061287082611c12565b915061287b83611c12565b9250827fffffffffffffffffffffffffffffffffffffffffffffffffffffffffffffffff038211156128b0576128af612802565b5b828201905092915050565b7f4552433732313a206d696e7420746f20746865207a65726f2061646472657373600082015250565b60006128f1602083611b62565b91506128fc826128bb565b602082019050919050565b60006020820190508181036000830152612920816128e4565b9050919050565b7f4552433732313a20746f6b656e20616c7265616479206d696e74656400000000600082015250565b600061295d601c83611b62565b915061296882612927565b602082019050919050565b6000602082019050818103600083015261298c81612950565b9050919050565b7f45524337323155524953746f726167653a2055524920736574206f66206e6f6e60008201527f6578697374656e7420746f6b656e000000000000000000000000000000000000602082015250565b60006129ef602e83611b62565b91506129fa82612993565b604082019050919050565b60006020820190508181036000830152612a1e816129e2565b9050919050565b7f4552433732313a20617070726f766520746f2063616c6c657200000000000000600082015250565b6000612a5b601983611b62565b9150612a6682612a25565b602082019050919050565b60006020820190508181036000830152612a8a81612a4e565b9050919050565b7f4552433732313a207472616e7366657220746f206e6f6e20455243373231526560008201527f63656976657220696d706c656d656e7465720000000000000000000000000000602082015250565b6000612aed603283611b62565b9150612af882612a91565b604082019050919050565b60006020820190508181036000830152612b1c81612ae0565b9050919050565b7f4552433732314d657461646174613a2055524920717565727920666f72206e6f60008201527f6e6578697374656e7420746f6b656e0000000000000000000000000000000000602082015250565b6000612b7f602f83611b62565b9150612b8a82612b23565b604082019050919050565b60006020820190508181036000830152612bae81612b72565b9050919050565b600081519050919050565b600082825260208201905092915050565b6000612bdc82612bb5565b612be68185612bc0565b9350612bf6818560208601611b73565b612bff81611ba6565b840191505092915050565b6000608082019050612c1f6000830187611ca7565b612c2c6020830186611ca7565b612c396040830185611f4e565b8181036060830152612c4b8184612bd1565b905095945050505050565b600081519050612c6581611ac8565b92915050565b600060208284031215612c8157612c80611a92565b5b6000612c8f84828501612c56565b91505092915050565b6000612ca382611c12565b91507fffffffffffffffffffffffffffffffffffffffffffffffffffffffffffffffff821415612cd657612cd5612802565b5b600182019050919050565b7f4e487b7100000000000000000000000000000000000000000000000000000000600052601260045260246000fd5b6000612d1b82611c12565b9150612d2683611c12565b925082612d3657612d35612ce1565b5b828204905092915050565b6000612d4c82611c12565b9150612d5783611c12565b925082612d6757612d66612ce1565b5b828206905092915050565b7f4e487b7100000000000000000000000000000000000000000000000000000000600052603260045260246000fdfea2646970667358221220daec5f29c6f9060d6852e7ff3994e63e9893572512e5e7d184f34c02f3560c9064736f6c634300080a0033",
  "linkReferences": {},
  "deployedLinkReferences": {}
}