{
  "_format": "hh-sol-artifact-1",
  "contractName": "ZenoERC721Factory",
  "sourceName": "contracts/ZenoERC721Factory.sol",
  "abi": [
    {
      "inputs": [
        {
          "internalType": "address",
          "name": "_implementation",
          "type": "address"
        }
      ],
      "stateMutability": "nonpayable",
      "type": "constructor"
    },
    {
      "anonymous": false,
      "inputs": [
        {
          "indexed": false,
          "internalType": "address",
          "name": "wallet",
          "type": "address"
        },
        {
          "indexed": false,
          "internalType": "address",
          "name": "owner",
          "type": "address"
        }
      ],
      "name": "NewBusinessERC721",
      "type": "event"
    },
    {
      "inputs": [],
      "name": "createBusinessERC721Contract",
      "outputs": [
        {
          "internalType": "address",
          "name": "erc721",
          "type": "address"
        }
      ],
      "stateMutability": "nonpayable",
      "type": "function"
    },
    {
      "inputs": [],
      "name": "implementation",
      "outputs": [
        {
          "internalType": "address",
          "name": "",
          "type": "address"
        }
      ],
      "stateMutability": "view",
      "type": "function"
    }
  ],
  "bytecode": "0x608060405234801561001057600080fd5b50604051610379380380610379833981810160405281019061003291906100db565b806000806101000a81548173ffffffffffffffffffffffffffffffffffffffff021916908373ffffffffffffffffffffffffffffffffffffffff16021790555050610108565b600080fd5b600073ffffffffffffffffffffffffffffffffffffffff82169050919050565b60006100a88261007d565b9050919050565b6100b88161009d565b81146100c357600080fd5b50565b6000815190506100d5816100af565b92915050565b6000602082840312156100f1576100f0610078565b5b60006100ff848285016100c6565b91505092915050565b610262806101176000396000f3fe608060405234801561001057600080fd5b50600436106100365760003560e01c80633f3b8b541461003b5780635c60da1b14610059575b600080fd5b610043610077565b60405161005091906101e8565b60405180910390f35b6100616100e0565b60405161006e91906101e8565b60405180910390f35b60006100a260008054906101000a900473ffffffffffffffffffffffffffffffffffffffff16610104565b90507f4e32687a30cbee49244438409964aa382f148c42085c3d5a30332d8b726b601c81336040516100d5929190610203565b60405180910390a190565b60008054906101000a900473ffffffffffffffffffffffffffffffffffffffff1681565b6000808260601b90506040517f3d602d80600a3d3981f3363d3d373d3d3d363d7300000000000000000000000081528160148201527f5af43d82803e903d91602b57fd5bf3000000000000000000000000000000000060288201526037816000f09250503373ffffffffffffffffffffffffffffffffffffffff168273ffffffffffffffffffffffffffffffffffffffff1614156101a157600080fd5b50919050565b600073ffffffffffffffffffffffffffffffffffffffff82169050919050565b60006101d2826101a7565b9050919050565b6101e2816101c7565b82525050565b60006020820190506101fd60008301846101d9565b92915050565b600060408201905061021860008301856101d9565b61022560208301846101d9565b939250505056fea2646970667358221220c6b5d50002d12d64faf77829b31299595fd693c612b37944018a47ccb6c9760664736f6c634300080a0033",
  "linkReferences": {},
  "deployedLinkReferences": {}
}