{
  "_format": "hh-sol-artifact-1",
  "contractName": "Wave",
  "sourceName": "contracts/Wave.sol",
  "abi": [
    {
      "inputs": [],
      "stateMutability": "payable",
      "type": "constructor"
    },
    {
      "anonymous": false,
      "inputs": [
        {
          "indexed": true,
          "internalType": "address",
          "name": "to",
          "type": "address"
        }
      ],
      "name": "NewReward",
      "type": "event"
    },
    {
      "anonymous": false,
      "inputs": [
        {
          "indexed": true,
          "internalType": "address",
          "name": "from",
          "type": "address"
        },
        {
          "indexed": false,
          "internalType": "uint256",
          "name": "timestamp",
          "type": "uint256"
        },
        {
          "indexed": false,
          "internalType": "string",
          "name": "message",
          "type": "string"
        }
      ],
      "name": "NewWave",
      "type": "event"
    },
    {
      "inputs": [],
      "name": "getMessages",
      "outputs": [
        {
          "components": [
            {
              "internalType": "uint256",
              "name": "id",
              "type": "uint256"
            },
            {
              "internalType": "address",
              "name": "from",
              "type": "address"
            },
            {
              "internalType": "string",
              "name": "message",
              "type": "string"
            },
            {
              "internalType": "uint256",
              "name": "timestamp",
              "type": "uint256"
            }
          ],
          "internalType": "struct Wave.Message[]",
          "name": "",
          "type": "tuple[]"
        }
      ],
      "stateMutability": "view",
      "type": "function"
    },
    {
      "inputs": [],
      "name": "reward",
      "outputs": [],
      "stateMutability": "payable",
      "type": "function"
    },
    {
      "inputs": [],
      "name": "totalWaves",
      "outputs": [
        {
          "internalType": "uint256",
          "name": "",
          "type": "uint256"
        }
      ],
      "stateMutability": "view",
      "type": "function"
    },
    {
      "inputs": [
        {
          "internalType": "string",
          "name": "message",
          "type": "string"
        }
      ],
      "name": "wave",
      "outputs": [],
      "stateMutability": "nonpayable",
      "type": "function"
    }
  ],
  "bytecode": "0x60806040526200004f6040518060400160405280601f81526020017f5374617274696e67207769746820746865207761766520636f6e7472616374008152506200009660201b620006381760201c565b33600260006101000a81548173ffffffffffffffffffffffffffffffffffffffff021916908373ffffffffffffffffffffffffffffffffffffffff1602179055506200022a565b6200013681604051602401620000ad9190620001a3565b6040516020818303038152906040527f41304fac000000000000000000000000000000000000000000000000000000007bffffffffffffffffffffffffffffffffffffffffffffffffffffffff19166020820180517bffffffffffffffffffffffffffffffffffffffffffffffffffffffff83818316178352505050506200013960201b60201c565b50565b60008151905060006a636f6e736f6c652e6c6f679050602083016000808483855afa5050505050565b60006200016f82620001c7565b6200017b8185620001d2565b93506200018d818560208601620001e3565b620001988162000219565b840191505092915050565b60006020820190508181036000830152620001bf818462000162565b905092915050565b600081519050919050565b600082825260208201905092915050565b60005b8381101562000203578082015181840152602081019050620001e6565b8381111562000213576000848401525b50505050565b6000601f19601f8301169050919050565b610fbf806200023a6000396000f3fe60806040526004361061003f5760003560e01c8063228cb73314610044578063291bcab31461004e578063449d46c0146100795780635ff6cbf3146100a2575b600080fd5b61004c6100cd565b005b34801561005a57600080fd5b50610063610375565b6040516100709190610b70565b60405180910390f35b34801561008557600080fd5b506100a0600480360381019061009b9190610805565b61037b565b005b3480156100ae57600080fd5b506100b76104dd565b6040516100c49190610acc565b60405180910390f35b600260009054906101000a900473ffffffffffffffffffffffffffffffffffffffff1673ffffffffffffffffffffffffffffffffffffffff163373ffffffffffffffffffffffffffffffffffffffff161461015d576040517f08c379a000000000000000000000000000000000000000000000000000000000815260040161015490610b50565b60405180910390fd5b66038d7ea4c6800047116101a6576040517f08c379a000000000000000000000000000000000000000000000000000000000815260040161019d90610b30565b60405180910390fd5b600060038054905042336040516020016101c1929190610aa0565b6040516020818303038152906040528051906020012060001c6101e49190610dda565b9050600060038281548110610222577f4e487b7100000000000000000000000000000000000000000000000000000000600052603260045260246000fd5b9060005260206000209060040201905060008160010160009054906101000a900473ffffffffffffffffffffffffffffffffffffffff1673ffffffffffffffffffffffffffffffffffffffff1666038d7ea4c6800060405161028390610a8b565b60006040518083038185875af1925050503d80600081146102c0576040519150601f19603f3d011682016040523d82523d6000602084013e6102c5565b606091505b5050905080610309576040517f08c379a000000000000000000000000000000000000000000000000000000000815260040161030090610b10565b60405180910390fd5b8160010160009054906101000a900473ffffffffffffffffffffffffffffffffffffffff1673ffffffffffffffffffffffffffffffffffffffff167f53daf7d28eedfc677d2a14a982e15cd80d3465a57e4939659fbf178b021f0e0960405160405180910390a2505050565b60005481565b600060405180608001604052806001600081548092919061039b90610d63565b9190505581526020013373ffffffffffffffffffffffffffffffffffffffff16815260200183815260200142815250905060038190806001815401808255809150506001900390600052602060002090600402016000909190919091506000820151816000015560208201518160010160006101000a81548173ffffffffffffffffffffffffffffffffffffffff021916908373ffffffffffffffffffffffffffffffffffffffff16021790555060408201518160020190805190602001906104659291906106fa565b5060608201518160030155505060008081548092919061048490610d63565b91905055503373ffffffffffffffffffffffffffffffffffffffff167f5f7e16dc676677766a70e9c5628aa6c54ddb8b6e5188e2ae1e1f17f1ffbea71642846040516104d1929190610b8b565b60405180910390a25050565b60606003805480602002602001604051908101604052809291908181526020016000905b8282101561062f5783829060005260206000209060040201604051806080016040529081600082015481526020016001820160009054906101000a900473ffffffffffffffffffffffffffffffffffffffff1673ffffffffffffffffffffffffffffffffffffffff1673ffffffffffffffffffffffffffffffffffffffff16815260200160028201805461059490610d00565b80601f01602080910402602001604051908101604052809291908181526020018280546105c090610d00565b801561060d5780601f106105e25761010080835404028352916020019161060d565b820191906000526020600020905b8154815290600101906020018083116105f057829003601f168201915b5050505050815260200160038201548152505081526020019060010190610501565b50505050905090565b6106ce8160405160240161064c9190610aee565b6040516020818303038152906040527f41304fac000000000000000000000000000000000000000000000000000000007bffffffffffffffffffffffffffffffffffffffffffffffffffffffff19166020820180517bffffffffffffffffffffffffffffffffffffffffffffffffffffffff83818316178352505050506106d1565b50565b60008151905060006a636f6e736f6c652e6c6f679050602083016000808483855afa5050505050565b82805461070690610d00565b90600052602060002090601f016020900481019282610728576000855561076f565b82601f1061074157805160ff191683800117855561076f565b8280016001018555821561076f579182015b8281111561076e578251825591602001919060010190610753565b5b50905061077c9190610780565b5090565b5b80821115610799576000816000905550600101610781565b5090565b60006107b06107ab84610be0565b610bbb565b9050828152602081018484840111156107c857600080fd5b6107d3848285610cbe565b509392505050565b600082601f8301126107ec57600080fd5b81356107fc84826020860161079d565b91505092915050565b60006020828403121561081757600080fd5b600082013567ffffffffffffffff81111561083157600080fd5b61083d848285016107db565b91505092915050565b600061085283836109f3565b905092915050565b61086381610c82565b82525050565b61087a61087582610c82565b610dac565b82525050565b600061088b82610c21565b6108958185610c44565b9350836020820285016108a785610c11565b8060005b858110156108e357848403895281516108c48582610846565b94506108cf83610c37565b925060208a019950506001810190506108ab565b50829750879550505050505092915050565b600061090082610c2c565b61090a8185610c60565b935061091a818560208601610ccd565b61092381610ec7565b840191505092915050565b600061093982610c2c565b6109438185610c71565b9350610953818560208601610ccd565b61095c81610ec7565b840191505092915050565b6000610974602783610c71565b915061097f82610ee5565b604082019050919050565b6000610997601483610c71565b91506109a282610f34565b602082019050919050565b60006109ba600083610c55565b91506109c582610f5d565b600082019050919050565b60006109dd601f83610c71565b91506109e882610f60565b602082019050919050565b6000608083016000830151610a0b6000860182610a56565b506020830151610a1e602086018261085a565b5060408301518482036040860152610a3682826108f5565b9150506060830151610a4b6060860182610a56565b508091505092915050565b610a5f81610cb4565b82525050565b610a6e81610cb4565b82525050565b610a85610a8082610cb4565b610dd0565b82525050565b6000610a96826109ad565b9150819050919050565b6000610aac8285610a74565b602082019150610abc8284610869565b6014820191508190509392505050565b60006020820190508181036000830152610ae68184610880565b905092915050565b60006020820190508181036000830152610b08818461092e565b905092915050565b60006020820190508181036000830152610b2981610967565b9050919050565b60006020820190508181036000830152610b498161098a565b9050919050565b60006020820190508181036000830152610b69816109d0565b9050919050565b6000602082019050610b856000830184610a65565b92915050565b6000604082019050610ba06000830185610a65565b8181036020830152610bb2818461092e565b90509392505050565b6000610bc5610bd6565b9050610bd18282610d32565b919050565b6000604051905090565b600067ffffffffffffffff821115610bfb57610bfa610e98565b5b610c0482610ec7565b9050602081019050919050565b6000819050602082019050919050565b600081519050919050565b600081519050919050565b6000602082019050919050565b600082825260208201905092915050565b600081905092915050565b600082825260208201905092915050565b600082825260208201905092915050565b6000610c8d82610c94565b9050919050565b600073ffffffffffffffffffffffffffffffffffffffff82169050919050565b6000819050919050565b82818337600083830152505050565b60005b83811015610ceb578082015181840152602081019050610cd0565b83811115610cfa576000848401525b50505050565b60006002820490506001821680610d1857607f821691505b60208210811415610d2c57610d2b610e69565b5b50919050565b610d3b82610ec7565b810181811067ffffffffffffffff82111715610d5a57610d59610e98565b5b80604052505050565b6000610d6e82610cb4565b91507fffffffffffffffffffffffffffffffffffffffffffffffffffffffffffffffff821415610da157610da0610e0b565b5b600182019050919050565b6000610db782610dbe565b9050919050565b6000610dc982610ed8565b9050919050565b6000819050919050565b6000610de582610cb4565b9150610df083610cb4565b925082610e0057610dff610e3a565b5b828206905092915050565b7f4e487b7100000000000000000000000000000000000000000000000000000000600052601160045260246000fd5b7f4e487b7100000000000000000000000000000000000000000000000000000000600052601260045260246000fd5b7f4e487b7100000000000000000000000000000000000000000000000000000000600052602260045260246000fd5b7f4e487b7100000000000000000000000000000000000000000000000000000000600052604160045260246000fd5b6000601f19601f8301169050919050565b60008160601b9050919050565b7f4661696c656420746f207769746864726177206d6f6e65792066726f6d20636f60008201527f6e74726163742e00000000000000000000000000000000000000000000000000602082015250565b7f696e73756666696369656e742062616c616e6365000000000000000000000000600082015250565b50565b7f4f6e6c79206d616e616765722063616e2070726f63657373207265776172640060008201525056fea264697066735822122053d1ca29cc2dd03071e95dfd63ee2a4f05653008bcfd8f7f63e61c28c8c0580164736f6c63430008040033",
  "linkReferences": {},
  "deployedLinkReferences": {}
}