{
  "_format": "hh-sol-artifact-1",
  "contractName": "Vendor",
  "sourceName": "contracts/Vendor.sol",
  "abi": [
    {
      "inputs": [
        {
          "internalType": "address",
          "name": "tokenAddress",
          "type": "address"
        }
      ],
      "stateMutability": "nonpayable",
      "type": "constructor"
    },
    {
      "anonymous": false,
      "inputs": [
        {
          "indexed": false,
          "internalType": "address",
          "name": "buyer",
          "type": "address"
        },
        {
          "indexed": false,
          "internalType": "uint256",
          "name": "amountOfEth",
          "type": "uint256"
        },
        {
          "indexed": false,
          "internalType": "uint256",
          "name": "amountOfTokens",
          "type": "uint256"
        }
      ],
      "name": "BuyTokens",
      "type": "event"
    },
    {
      "anonymous": false,
      "inputs": [
        {
          "indexed": false,
          "internalType": "address",
          "name": "from",
          "type": "address"
        },
        {
          "indexed": false,
          "internalType": "address",
          "name": "to",
          "type": "address"
        },
        {
          "indexed": false,
          "internalType": "uint256",
          "name": "amount",
          "type": "uint256"
        }
      ],
      "name": "SellTokens",
      "type": "event"
    },
    {
      "inputs": [],
      "name": "buyTokens",
      "outputs": [],
      "stateMutability": "payable",
      "type": "function"
    },
    {
      "inputs": [
        {
          "internalType": "uint256",
          "name": "tokens",
          "type": "uint256"
        }
      ],
      "name": "sellTokens",
      "outputs": [],
      "stateMutability": "payable",
      "type": "function"
    },
    {
      "inputs": [],
      "name": "tokensPerEth",
      "outputs": [
        {
          "internalType": "uint256",
          "name": "",
          "type": "uint256"
        }
      ],
      "stateMutability": "view",
      "type": "function"
    },
    {
      "inputs": [],
      "name": "zenoToken",
      "outputs": [
        {
          "internalType": "contract ZenoToken",
          "name": "",
          "type": "address"
        }
      ],
      "stateMutability": "view",
      "type": "function"
    },
    {
      "stateMutability": "payable",
      "type": "receive"
    }
  ],
  "bytecode": "0x608060405234801561001057600080fd5b50604051610754380380610754833981810160405281019061003291906100db565b806000806101000a81548173ffffffffffffffffffffffffffffffffffffffff021916908373ffffffffffffffffffffffffffffffffffffffff16021790555050610108565b600080fd5b600073ffffffffffffffffffffffffffffffffffffffff82169050919050565b60006100a88261007d565b9050919050565b6100b88161009d565b81146100c357600080fd5b50565b6000815190506100d5816100af565b92915050565b6000602082840312156100f1576100f0610078565b5b60006100ff848285016100c6565b91505092915050565b61063d806101176000396000f3fe6080604052600436106100435760003560e01c80636c11bcd31461004f5780636d4a0fd41461006b578063cbdd69b514610096578063d0febe4c146100c15761004a565b3661004a57005b600080fd5b61006960048036038101906100649190610310565b6100cb565b005b34801561007757600080fd5b506100806101aa565b60405161008d91906103bc565b60405180910390f35b3480156100a257600080fd5b506100ab6101ce565b6040516100b891906103e6565b60405180910390f35b6100c96101d3565b005b60008054906101000a900473ffffffffffffffffffffffffffffffffffffffff1673ffffffffffffffffffffffffffffffffffffffff166323b872dd3330846040518463ffffffff1660e01b815260040161012893929190610422565b6020604051808303816000875af1158015610147573d6000803e3d6000fd5b505050506040513d601f19601f8201168201806040525081019061016b9190610491565b507fb387988aa01ed2fb414171056d97b221b132b7d0471ea91decdeaf12e18edb1133308360405161019f93929190610422565b60405180910390a150565b60008054906101000a900473ffffffffffffffffffffffffffffffffffffffff1681565b606481565b60006064670de0b6b3a7640000346101eb919061051c565b6101f5919061054d565b905060008054906101000a900473ffffffffffffffffffffffffffffffffffffffff1673ffffffffffffffffffffffffffffffffffffffff1663a9059cbb33836040518363ffffffff1660e01b81526004016102529291906105a7565b6020604051808303816000875af1158015610271573d6000803e3d6000fd5b505050506040513d601f19601f820116820180604052508101906102959190610491565b507f0a37b72bb67eee30e09084cf386f8a17817c57f620c3ab95fb25d6a20356ec77336064836040516102ca939291906105d0565b60405180910390a150565b600080fd5b6000819050919050565b6102ed816102da565b81146102f857600080fd5b50565b60008135905061030a816102e4565b92915050565b600060208284031215610326576103256102d5565b5b6000610334848285016102fb565b91505092915050565b600073ffffffffffffffffffffffffffffffffffffffff82169050919050565b6000819050919050565b600061038261037d6103788461033d565b61035d565b61033d565b9050919050565b600061039482610367565b9050919050565b60006103a682610389565b9050919050565b6103b68161039b565b82525050565b60006020820190506103d160008301846103ad565b92915050565b6103e0816102da565b82525050565b60006020820190506103fb60008301846103d7565b92915050565b600061040c8261033d565b9050919050565b61041c81610401565b82525050565b60006060820190506104376000830186610413565b6104446020830185610413565b61045160408301846103d7565b949350505050565b60008115159050919050565b61046e81610459565b811461047957600080fd5b50565b60008151905061048b81610465565b92915050565b6000602082840312156104a7576104a66102d5565b5b60006104b58482850161047c565b91505092915050565b7f4e487b7100000000000000000000000000000000000000000000000000000000600052601260045260246000fd5b7f4e487b7100000000000000000000000000000000000000000000000000000000600052601160045260246000fd5b6000610527826102da565b9150610532836102da565b925082610542576105416104be565b5b828204905092915050565b6000610558826102da565b9150610563836102da565b9250817fffffffffffffffffffffffffffffffffffffffffffffffffffffffffffffffff048311821515161561059c5761059b6104ed565b5b828202905092915050565b60006040820190506105bc6000830185610413565b6105c960208301846103d7565b9392505050565b60006060820190506105e56000830186610413565b6105f260208301856103d7565b6105ff60408301846103d7565b94935050505056fea2646970667358221220a11049447c1a5ca7531472846c9894266ff20f37291e332483a8dea14a0d2be764736f6c634300080a0033",
  "linkReferences": {},
  "deployedLinkReferences": {}
}