{
  "_format": "hh-sol-artifact-1",
  "contractName": "EpicNFT",
  "sourceName": "contracts/EpicNFT.sol",
  "abi": [
    {
      "inputs": [],
      "stateMutability": "nonpayable",
      "type": "constructor"
    },
    {
      "anonymous": false,
      "inputs": [
        {
          "indexed": true,
          "internalType": "address",
          "name": "owner",
          "type": "address"
        },
        {
          "indexed": true,
          "internalType": "address",
          "name": "approved",
          "type": "address"
        },
        {
          "indexed": true,
          "internalType": "uint256",
          "name": "tokenId",
          "type": "uint256"
        }
      ],
      "name": "Approval",
      "type": "event"
    },
    {
      "anonymous": false,
      "inputs": [
        {
          "indexed": true,
          "internalType": "address",
          "name": "owner",
          "type": "address"
        },
        {
          "indexed": true,
          "internalType": "address",
          "name": "operator",
          "type": "address"
        },
        {
          "indexed": false,
          "internalType": "bool",
          "name": "approved",
          "type": "bool"
        }
      ],
      "name": "ApprovalForAll",
      "type": "event"
    },
    {
      "anonymous": false,
      "inputs": [
        {
          "indexed": true,
          "internalType": "address",
          "name": "from",
          "type": "address"
        },
        {
          "indexed": true,
          "internalType": "address",
          "name": "to",
          "type": "address"
        },
        {
          "indexed": true,
          "internalType": "uint256",
          "name": "tokenId",
          "type": "uint256"
        }
      ],
      "name": "Transfer",
      "type": "event"
    },
    {
      "inputs": [
        {
          "internalType": "address",
          "name": "to",
          "type": "address"
        },
        {
          "internalType": "uint256",
          "name": "tokenId",
          "type": "uint256"
        }
      ],
      "name": "approve",
      "outputs": [],
      "stateMutability": "nonpayable",
      "type": "function"
    },
    {
      "inputs": [
        {
          "internalType": "address",
          "name": "owner",
          "type": "address"
        }
      ],
      "name": "balanceOf",
      "outputs": [
        {
          "internalType": "uint256",
          "name": "",
          "type": "uint256"
        }
      ],
      "stateMutability": "view",
      "type": "function"
    },
    {
      "inputs": [
        {
          "internalType": "uint256",
          "name": "tokenId",
          "type": "uint256"
        }
      ],
      "name": "getApproved",
      "outputs": [
        {
          "internalType": "address",
          "name": "",
          "type": "address"
        }
      ],
      "stateMutability": "view",
      "type": "function"
    },
    {
      "inputs": [
        {
          "internalType": "address",
          "name": "owner",
          "type": "address"
        },
        {
          "internalType": "address",
          "name": "operator",
          "type": "address"
        }
      ],
      "name": "isApprovedForAll",
      "outputs": [
        {
          "internalType": "bool",
          "name": "",
          "type": "bool"
        }
      ],
      "stateMutability": "view",
      "type": "function"
    },
    {
      "inputs": [
        {
          "internalType": "string",
          "name": "tokenUri",
          "type": "string"
        }
      ],
      "name": "mintNFT",
      "outputs": [],
      "stateMutability": "payable",
      "type": "function"
    },
    {
      "inputs": [],
      "name": "name",
      "outputs": [
        {
          "internalType": "string",
          "name": "",
          "type": "string"
        }
      ],
      "stateMutability": "view",
      "type": "function"
    },
    {
      "inputs": [
        {
          "internalType": "uint256",
          "name": "tokenId",
          "type": "uint256"
        }
      ],
      "name": "ownerOf",
      "outputs": [
        {
          "internalType": "address",
          "name": "",
          "type": "address"
        }
      ],
      "stateMutability": "view",
      "type": "function"
    },
    {
      "inputs": [
        {
          "internalType": "address",
          "name": "from",
          "type": "address"
        },
        {
          "internalType": "address",
          "name": "to",
          "type": "address"
        },
        {
          "internalType": "uint256",
          "name": "tokenId",
          "type": "uint256"
        }
      ],
      "name": "safeTransferFrom",
      "outputs": [],
      "stateMutability": "nonpayable",
      "type": "function"
    },
    {
      "inputs": [
        {
          "internalType": "address",
          "name": "from",
          "type": "address"
        },
        {
          "internalType": "address",
          "name": "to",
          "type": "address"
        },
        {
          "internalType": "uint256",
          "name": "tokenId",
          "type": "uint256"
        },
        {
          "internalType": "bytes",
          "name": "_data",
          "type": "bytes"
        }
      ],
      "name": "safeTransferFrom",
      "outputs": [],
      "stateMutability": "nonpayable",
      "type": "function"
    },
    {
      "inputs": [
        {
          "internalType": "address",
          "name": "operator",
          "type": "address"
        },
        {
          "internalType": "bool",
          "name": "approved",
          "type": "bool"
        }
      ],
      "name": "setApprovalForAll",
      "outputs": [],
      "stateMutability": "nonpayable",
      "type": "function"
    },
    {
      "inputs": [
        {
          "internalType": "bytes4",
          "name": "interfaceId",
          "type": "bytes4"
        }
      ],
      "name": "supportsInterface",
      "outputs": [
        {
          "internalType": "bool",
          "name": "",
          "type": "bool"
        }
      ],
      "stateMutability": "view",
      "type": "function"
    },
    {
      "inputs": [],
      "name": "symbol",
      "outputs": [
        {
          "internalType": "string",
          "name": "",
          "type": "string"
        }
      ],
      "stateMutability": "view",
      "type": "function"
    },
    {
      "inputs": [
        {
          "internalType": "uint256",
          "name": "tokenId",
          "type": "uint256"
        }
      ],
      "name": "tokenURI",
      "outputs": [
        {
          "internalType": "string",
          "name": "",
          "type": "string"
        }
      ],
      "stateMutability": "view",
      "type": "function"
    },
    {
      "inputs": [
        {
          "internalType": "address",
          "name": "from",
          "type": "address"
        },
        {
          "internalType": "address",
          "name": "to",
          "type": "address"
        },
        {
          "internalType": "uint256",
          "name": "tokenId",
          "type": "uint256"
        }
      ],
      "name": "transferFrom",
      "outputs": [],
      "stateMutability": "nonpayable",
      "type": "function"
    }
  ],
  "bytecode": "0x60806040523480156200001157600080fd5b506040518060400160405280600781526020017f457069634e4654000000000000000000000000000000000000000000000000008152506040518060400160405280600481526020017f4550494300000000000000000000000000000000000000000000000000000000815250816000908051906020019062000096929190620000b8565b508060019080519060200190620000af929190620000b8565b505050620001cd565b828054620000c69062000168565b90600052602060002090601f016020900481019282620000ea576000855562000136565b82601f106200010557805160ff191683800117855562000136565b8280016001018555821562000136579182015b828111156200013557825182559160200191906001019062000118565b5b50905062000145919062000149565b5090565b5b80821115620001645760008160009055506001016200014a565b5090565b600060028204905060018216806200018157607f821691505b602082108114156200019857620001976200019e565b5b50919050565b7f4e487b7100000000000000000000000000000000000000000000000000000000600052602260045260246000fd5b612c8080620001dd6000396000f3fe6080604052600436106100dd5760003560e01c806370a082311161007f578063b88d4fde11610059578063b88d4fde146102d0578063c87b56dd146102f9578063e985e9c514610336578063fb37e88314610373576100dd565b806370a082311461023f57806395d89b411461027c578063a22cb465146102a7576100dd565b8063095ea7b3116100bb578063095ea7b31461018757806323b872dd146101b057806342842e0e146101d95780636352211e14610202576100dd565b806301ffc9a7146100e257806306fdde031461011f578063081812fc1461014a575b600080fd5b3480156100ee57600080fd5b5061010960048036038101906101049190611cec565b61038f565b6040516101169190612133565b60405180910390f35b34801561012b57600080fd5b50610134610471565b604051610141919061214e565b60405180910390f35b34801561015657600080fd5b50610171600480360381019061016c9190611d7f565b610503565b60405161017e91906120cc565b60405180910390f35b34801561019357600080fd5b506101ae60048036038101906101a99190611cb0565b610588565b005b3480156101bc57600080fd5b506101d760048036038101906101d29190611baa565b6106a0565b005b3480156101e557600080fd5b5061020060048036038101906101fb9190611baa565b610700565b005b34801561020e57600080fd5b5061022960048036038101906102249190611d7f565b610720565b60405161023691906120cc565b60405180910390f35b34801561024b57600080fd5b5061026660048036038101906102619190611b45565b6107d2565b6040516102739190612370565b60405180910390f35b34801561028857600080fd5b5061029161088a565b60405161029e919061214e565b60405180910390f35b3480156102b357600080fd5b506102ce60048036038101906102c99190611c74565b61091c565b005b3480156102dc57600080fd5b506102f760048036038101906102f29190611bf9565b610932565b005b34801561030557600080fd5b50610320600480360381019061031b9190611d7f565b610994565b60405161032d919061214e565b60405180910390f35b34801561034257600080fd5b5061035d60048036038101906103589190611b6e565b610ae6565b60405161036a9190612133565b60405180910390f35b61038d60048036038101906103889190611d3e565b610b7a565b005b60007f80ac58cd000000000000000000000000000000000000000000000000000000007bffffffffffffffffffffffffffffffffffffffffffffffffffffffff1916827bffffffffffffffffffffffffffffffffffffffffffffffffffffffff1916148061045a57507f5b5e139f000000000000000000000000000000000000000000000000000000007bffffffffffffffffffffffffffffffffffffffffffffffffffffffff1916827bffffffffffffffffffffffffffffffffffffffffffffffffffffffff1916145b8061046a575061046982610baa565b5b9050919050565b606060008054610480906125c6565b80601f01602080910402602001604051908101604052809291908181526020018280546104ac906125c6565b80156104f95780601f106104ce576101008083540402835291602001916104f9565b820191906000526020600020905b8154815290600101906020018083116104dc57829003601f168201915b5050505050905090565b600061050e82610c14565b61054d576040517f08c379a0000000000000000000000000000000000000000000000000000000008152600401610544906122f0565b60405180910390fd5b6004600083815260200190815260200160002060009054906101000a900473ffffffffffffffffffffffffffffffffffffffff169050919050565b600061059382610720565b90508073ffffffffffffffffffffffffffffffffffffffff168373ffffffffffffffffffffffffffffffffffffffff161415610604576040517f08c379a00000000000000000000000000000000000000000000000000000000081526004016105fb90612330565b60405180910390fd5b8073ffffffffffffffffffffffffffffffffffffffff16610623610c80565b73ffffffffffffffffffffffffffffffffffffffff16148061065257506106518161064c610c80565b610ae6565b5b610691576040517f08c379a000000000000000000000000000000000000000000000000000000000815260040161068890612230565b60405180910390fd5b61069b8383610c88565b505050565b6106b16106ab610c80565b82610d41565b6106f0576040517f08c379a00000000000000000000000000000000000000000000000000000000081526004016106e790612350565b60405180910390fd5b6106fb838383610e1f565b505050565b61071b83838360405180602001604052806000815250610932565b505050565b6000806002600084815260200190815260200160002060009054906101000a900473ffffffffffffffffffffffffffffffffffffffff169050600073ffffffffffffffffffffffffffffffffffffffff168173ffffffffffffffffffffffffffffffffffffffff1614156107c9576040517f08c379a00000000000000000000000000000000000000000000000000000000081526004016107c090612270565b60405180910390fd5b80915050919050565b60008073ffffffffffffffffffffffffffffffffffffffff168273ffffffffffffffffffffffffffffffffffffffff161415610843576040517f08c379a000000000000000000000000000000000000000000000000000000000815260040161083a90612250565b60405180910390fd5b600360008373ffffffffffffffffffffffffffffffffffffffff1673ffffffffffffffffffffffffffffffffffffffff168152602001908152602001600020549050919050565b606060018054610899906125c6565b80601f01602080910402602001604051908101604052809291908181526020018280546108c5906125c6565b80156109125780601f106108e757610100808354040283529160200191610912565b820191906000526020600020905b8154815290600101906020018083116108f557829003601f168201915b5050505050905090565b61092e610927610c80565b8383611086565b5050565b61094361093d610c80565b83610d41565b610982576040517f08c379a000000000000000000000000000000000000000000000000000000000815260040161097990612350565b60405180910390fd5b61098e848484846111f3565b50505050565b606061099f82610c14565b6109de576040517f08c379a00000000000000000000000000000000000000000000000000000000081526004016109d5906122d0565b60405180910390fd5b60006006600084815260200190815260200160002080546109fe906125c6565b80601f0160208091040260200160405190810160405280929190818152602001828054610a2a906125c6565b8015610a775780601f10610a4c57610100808354040283529160200191610a77565b820191906000526020600020905b815481529060010190602001808311610a5a57829003601f168201915b505050505090506000610a8861124f565b9050600081511415610a9e578192505050610ae1565b600082511115610ad3578082604051602001610abb9291906120a8565b60405160208183030381529060405292505050610ae1565b610adc84611266565b925050505b919050565b6000600560008473ffffffffffffffffffffffffffffffffffffffff1673ffffffffffffffffffffffffffffffffffffffff16815260200190815260200160002060008373ffffffffffffffffffffffffffffffffffffffff1673ffffffffffffffffffffffffffffffffffffffff16815260200190815260200160002060009054906101000a900460ff16905092915050565b6000610b86600761130d565b9050610b92338261131b565b610b9c8183611339565b610ba660076113ad565b5050565b60007f01ffc9a7000000000000000000000000000000000000000000000000000000007bffffffffffffffffffffffffffffffffffffffffffffffffffffffff1916827bffffffffffffffffffffffffffffffffffffffffffffffffffffffff1916149050919050565b60008073ffffffffffffffffffffffffffffffffffffffff166002600084815260200190815260200160002060009054906101000a900473ffffffffffffffffffffffffffffffffffffffff1673ffffffffffffffffffffffffffffffffffffffff1614159050919050565b600033905090565b816004600083815260200190815260200160002060006101000a81548173ffffffffffffffffffffffffffffffffffffffff021916908373ffffffffffffffffffffffffffffffffffffffff160217905550808273ffffffffffffffffffffffffffffffffffffffff16610cfb83610720565b73ffffffffffffffffffffffffffffffffffffffff167f8c5be1e5ebec7d5bd14f71427d1e84f3dd0314c0f7b2291e5b200ac8c7c3b92560405160405180910390a45050565b6000610d4c82610c14565b610d8b576040517f08c379a0000000000000000000000000000000000000000000000000000000008152600401610d8290612210565b60405180910390fd5b6000610d9683610720565b90508073ffffffffffffffffffffffffffffffffffffffff168473ffffffffffffffffffffffffffffffffffffffff161480610e0557508373ffffffffffffffffffffffffffffffffffffffff16610ded84610503565b73ffffffffffffffffffffffffffffffffffffffff16145b80610e165750610e158185610ae6565b5b91505092915050565b8273ffffffffffffffffffffffffffffffffffffffff16610e3f82610720565b73ffffffffffffffffffffffffffffffffffffffff1614610e95576040517f08c379a0000000000000000000000000000000000000000000000000000000008152600401610e8c90612190565b60405180910390fd5b600073ffffffffffffffffffffffffffffffffffffffff168273ffffffffffffffffffffffffffffffffffffffff161415610f05576040517f08c379a0000000000000000000000000000000000000000000000000000000008152600401610efc906121d0565b60405180910390fd5b610f108383836113c3565b610f1b600082610c88565b6001600360008573ffffffffffffffffffffffffffffffffffffffff1673ffffffffffffffffffffffffffffffffffffffff1681526020019081526020016000206000828254610f6b91906124dc565b925050819055506001600360008473ffffffffffffffffffffffffffffffffffffffff1673ffffffffffffffffffffffffffffffffffffffff1681526020019081526020016000206000828254610fc29190612455565b92505081905550816002600083815260200190815260200160002060006101000a81548173ffffffffffffffffffffffffffffffffffffffff021916908373ffffffffffffffffffffffffffffffffffffffff160217905550808273ffffffffffffffffffffffffffffffffffffffff168473ffffffffffffffffffffffffffffffffffffffff167fddf252ad1be2c89b69c2b068fc378daa952ba7f163c4a11628f55a4df523b3ef60405160405180910390a46110818383836113c8565b505050565b8173ffffffffffffffffffffffffffffffffffffffff168373ffffffffffffffffffffffffffffffffffffffff1614156110f5576040517f08c379a00000000000000000000000000000000000000000000000000000000081526004016110ec906121f0565b60405180910390fd5b80600560008573ffffffffffffffffffffffffffffffffffffffff1673ffffffffffffffffffffffffffffffffffffffff16815260200190815260200160002060008473ffffffffffffffffffffffffffffffffffffffff1673ffffffffffffffffffffffffffffffffffffffff16815260200190815260200160002060006101000a81548160ff0219169083151502179055508173ffffffffffffffffffffffffffffffffffffffff168373ffffffffffffffffffffffffffffffffffffffff167f17307eab39ab6107e8899845ad3d59bd9653f200f220920489ca2b5937696c31836040516111e69190612133565b60405180910390a3505050565b6111fe848484610e1f565b61120a848484846113cd565b611249576040517f08c379a000000000000000000000000000000000000000000000000000000000815260040161124090612170565b60405180910390fd5b50505050565b606060405180602001604052806000815250905090565b606061127182610c14565b6112b0576040517f08c379a00000000000000000000000000000000000000000000000000000000081526004016112a790612310565b60405180910390fd5b60006112ba61124f565b905060008151116112da5760405180602001604052806000815250611305565b806112e484611564565b6040516020016112f59291906120a8565b6040516020818303038152906040525b915050919050565b600081600001549050919050565b611335828260405180602001604052806000815250611711565b5050565b61134282610c14565b611381576040517f08c379a000000000000000000000000000000000000000000000000000000000815260040161137890612290565b60405180910390fd5b806006600084815260200190815260200160002090805190602001906113a8929190611969565b505050565b6001816000016000828254019250508190555050565b505050565b505050565b60006113ee8473ffffffffffffffffffffffffffffffffffffffff1661176c565b15611557578373ffffffffffffffffffffffffffffffffffffffff1663150b7a02611417610c80565b8786866040518563ffffffff1660e01b815260040161143994939291906120e7565b602060405180830381600087803b15801561145357600080fd5b505af192505050801561148457506040513d601f19601f820116820180604052508101906114819190611d15565b60015b611507573d80600081146114b4576040519150601f19603f3d011682016040523d82523d6000602084013e6114b9565b606091505b506000815114156114ff576040517f08c379a00000000000000000000000000000000000000000000000000000000081526004016114f690612170565b60405180910390fd5b805181602001fd5b63150b7a0260e01b7bffffffffffffffffffffffffffffffffffffffffffffffffffffffff1916817bffffffffffffffffffffffffffffffffffffffffffffffffffffffff19161491505061155c565b600190505b949350505050565b606060008214156115ac576040518060400160405280600181526020017f3000000000000000000000000000000000000000000000000000000000000000815250905061170c565b600082905060005b600082146115de5780806115c790612629565b915050600a826115d791906124ab565b91506115b4565b60008167ffffffffffffffff811115611620577f4e487b7100000000000000000000000000000000000000000000000000000000600052604160045260246000fd5b6040519080825280601f01601f1916602001820160405280156116525781602001600182028036833780820191505090505b5090505b600085146117055760018261166b91906124dc565b9150600a8561167a9190612672565b60306116869190612455565b60f81b8183815181106116c2577f4e487b7100000000000000000000000000000000000000000000000000000000600052603260045260246000fd5b60200101907effffffffffffffffffffffffffffffffffffffffffffffffffffffffffffff1916908160001a905350600a856116fe91906124ab565b9450611656565b8093505050505b919050565b61171b838361178f565b61172860008484846113cd565b611767576040517f08c379a000000000000000000000000000000000000000000000000000000000815260040161175e90612170565b60405180910390fd5b505050565b6000808273ffffffffffffffffffffffffffffffffffffffff163b119050919050565b600073ffffffffffffffffffffffffffffffffffffffff168273ffffffffffffffffffffffffffffffffffffffff1614156117ff576040517f08c379a00000000000000000000000000000000000000000000000000000000081526004016117f6906122b0565b60405180910390fd5b61180881610c14565b15611848576040517f08c379a000000000000000000000000000000000000000000000000000000000815260040161183f906121b0565b60405180910390fd5b611854600083836113c3565b6001600360008473ffffffffffffffffffffffffffffffffffffffff1673ffffffffffffffffffffffffffffffffffffffff16815260200190815260200160002060008282546118a49190612455565b92505081905550816002600083815260200190815260200160002060006101000a81548173ffffffffffffffffffffffffffffffffffffffff021916908373ffffffffffffffffffffffffffffffffffffffff160217905550808273ffffffffffffffffffffffffffffffffffffffff16600073ffffffffffffffffffffffffffffffffffffffff167fddf252ad1be2c89b69c2b068fc378daa952ba7f163c4a11628f55a4df523b3ef60405160405180910390a4611965600083836113c8565b5050565b828054611975906125c6565b90600052602060002090601f01602090048101928261199757600085556119de565b82601f106119b057805160ff19168380011785556119de565b828001600101855582156119de579182015b828111156119dd5782518255916020019190600101906119c2565b5b5090506119eb91906119ef565b5090565b5b80821115611a085760008160009055506001016119f0565b5090565b6000611a1f611a1a846123b0565b61238b565b905082815260208101848484011115611a3757600080fd5b611a42848285612584565b509392505050565b6000611a5d611a58846123e1565b61238b565b905082815260208101848484011115611a7557600080fd5b611a80848285612584565b509392505050565b600081359050611a9781612bee565b92915050565b600081359050611aac81612c05565b92915050565b600081359050611ac181612c1c565b92915050565b600081519050611ad681612c1c565b92915050565b600082601f830112611aed57600080fd5b8135611afd848260208601611a0c565b91505092915050565b600082601f830112611b1757600080fd5b8135611b27848260208601611a4a565b91505092915050565b600081359050611b3f81612c33565b92915050565b600060208284031215611b5757600080fd5b6000611b6584828501611a88565b91505092915050565b60008060408385031215611b8157600080fd5b6000611b8f85828601611a88565b9250506020611ba085828601611a88565b9150509250929050565b600080600060608486031215611bbf57600080fd5b6000611bcd86828701611a88565b9350506020611bde86828701611a88565b9250506040611bef86828701611b30565b9150509250925092565b60008060008060808587031215611c0f57600080fd5b6000611c1d87828801611a88565b9450506020611c2e87828801611a88565b9350506040611c3f87828801611b30565b925050606085013567ffffffffffffffff811115611c5c57600080fd5b611c6887828801611adc565b91505092959194509250565b60008060408385031215611c8757600080fd5b6000611c9585828601611a88565b9250506020611ca685828601611a9d565b9150509250929050565b60008060408385031215611cc357600080fd5b6000611cd185828601611a88565b9250506020611ce285828601611b30565b9150509250929050565b600060208284031215611cfe57600080fd5b6000611d0c84828501611ab2565b91505092915050565b600060208284031215611d2757600080fd5b6000611d3584828501611ac7565b91505092915050565b600060208284031215611d5057600080fd5b600082013567ffffffffffffffff811115611d6a57600080fd5b611d7684828501611b06565b91505092915050565b600060208284031215611d9157600080fd5b6000611d9f84828501611b30565b91505092915050565b611db181612510565b82525050565b611dc081612522565b82525050565b6000611dd182612412565b611ddb8185612428565b9350611deb818560208601612593565b611df48161275f565b840191505092915050565b6000611e0a8261241d565b611e148185612439565b9350611e24818560208601612593565b611e2d8161275f565b840191505092915050565b6000611e438261241d565b611e4d818561244a565b9350611e5d818560208601612593565b80840191505092915050565b6000611e76603283612439565b9150611e8182612770565b604082019050919050565b6000611e99602583612439565b9150611ea4826127bf565b604082019050919050565b6000611ebc601c83612439565b9150611ec78261280e565b602082019050919050565b6000611edf602483612439565b9150611eea82612837565b604082019050919050565b6000611f02601983612439565b9150611f0d82612886565b602082019050919050565b6000611f25602c83612439565b9150611f30826128af565b604082019050919050565b6000611f48603883612439565b9150611f53826128fe565b604082019050919050565b6000611f6b602a83612439565b9150611f768261294d565b604082019050919050565b6000611f8e602983612439565b9150611f998261299c565b604082019050919050565b6000611fb1602e83612439565b9150611fbc826129eb565b604082019050919050565b6000611fd4602083612439565b9150611fdf82612a3a565b602082019050919050565b6000611ff7603183612439565b915061200282612a63565b604082019050919050565b600061201a602c83612439565b915061202582612ab2565b604082019050919050565b600061203d602f83612439565b915061204882612b01565b604082019050919050565b6000612060602183612439565b915061206b82612b50565b604082019050919050565b6000612083603183612439565b915061208e82612b9f565b604082019050919050565b6120a28161257a565b82525050565b60006120b48285611e38565b91506120c08284611e38565b91508190509392505050565b60006020820190506120e16000830184611da8565b92915050565b60006080820190506120fc6000830187611da8565b6121096020830186611da8565b6121166040830185612099565b81810360608301526121288184611dc6565b905095945050505050565b60006020820190506121486000830184611db7565b92915050565b600060208201905081810360008301526121688184611dff565b905092915050565b6000602082019050818103600083015261218981611e69565b9050919050565b600060208201905081810360008301526121a981611e8c565b9050919050565b600060208201905081810360008301526121c981611eaf565b9050919050565b600060208201905081810360008301526121e981611ed2565b9050919050565b6000602082019050818103600083015261220981611ef5565b9050919050565b6000602082019050818103600083015261222981611f18565b9050919050565b6000602082019050818103600083015261224981611f3b565b9050919050565b6000602082019050818103600083015261226981611f5e565b9050919050565b6000602082019050818103600083015261228981611f81565b9050919050565b600060208201905081810360008301526122a981611fa4565b9050919050565b600060208201905081810360008301526122c981611fc7565b9050919050565b600060208201905081810360008301526122e981611fea565b9050919050565b600060208201905081810360008301526123098161200d565b9050919050565b6000602082019050818103600083015261232981612030565b9050919050565b6000602082019050818103600083015261234981612053565b9050919050565b6000602082019050818103600083015261236981612076565b9050919050565b60006020820190506123856000830184612099565b92915050565b60006123956123a6565b90506123a182826125f8565b919050565b6000604051905090565b600067ffffffffffffffff8211156123cb576123ca612730565b5b6123d48261275f565b9050602081019050919050565b600067ffffffffffffffff8211156123fc576123fb612730565b5b6124058261275f565b9050602081019050919050565b600081519050919050565b600081519050919050565b600082825260208201905092915050565b600082825260208201905092915050565b600081905092915050565b60006124608261257a565b915061246b8361257a565b9250827fffffffffffffffffffffffffffffffffffffffffffffffffffffffffffffffff038211156124a05761249f6126a3565b5b828201905092915050565b60006124b68261257a565b91506124c18361257a565b9250826124d1576124d06126d2565b5b828204905092915050565b60006124e78261257a565b91506124f28361257a565b925082821015612505576125046126a3565b5b828203905092915050565b600061251b8261255a565b9050919050565b60008115159050919050565b60007fffffffff0000000000000000000000000000000000000000000000000000000082169050919050565b600073ffffffffffffffffffffffffffffffffffffffff82169050919050565b6000819050919050565b82818337600083830152505050565b60005b838110156125b1578082015181840152602081019050612596565b838111156125c0576000848401525b50505050565b600060028204905060018216806125de57607f821691505b602082108114156125f2576125f1612701565b5b50919050565b6126018261275f565b810181811067ffffffffffffffff821117156126205761261f612730565b5b80604052505050565b60006126348261257a565b91507fffffffffffffffffffffffffffffffffffffffffffffffffffffffffffffffff821415612667576126666126a3565b5b600182019050919050565b600061267d8261257a565b91506126888361257a565b925082612698576126976126d2565b5b828206905092915050565b7f4e487b7100000000000000000000000000000000000000000000000000000000600052601160045260246000fd5b7f4e487b7100000000000000000000000000000000000000000000000000000000600052601260045260246000fd5b7f4e487b7100000000000000000000000000000000000000000000000000000000600052602260045260246000fd5b7f4e487b7100000000000000000000000000000000000000000000000000000000600052604160045260246000fd5b6000601f19601f8301169050919050565b7f4552433732313a207472616e7366657220746f206e6f6e20455243373231526560008201527f63656976657220696d706c656d656e7465720000000000000000000000000000602082015250565b7f4552433732313a207472616e736665722066726f6d20696e636f72726563742060008201527f6f776e6572000000000000000000000000000000000000000000000000000000602082015250565b7f4552433732313a20746f6b656e20616c7265616479206d696e74656400000000600082015250565b7f4552433732313a207472616e7366657220746f20746865207a65726f2061646460008201527f7265737300000000000000000000000000000000000000000000000000000000602082015250565b7f4552433732313a20617070726f766520746f2063616c6c657200000000000000600082015250565b7f4552433732313a206f70657261746f7220717565727920666f72206e6f6e657860008201527f697374656e7420746f6b656e0000000000000000000000000000000000000000602082015250565b7f4552433732313a20617070726f76652063616c6c6572206973206e6f74206f7760008201527f6e6572206e6f7220617070726f76656420666f7220616c6c0000000000000000602082015250565b7f4552433732313a2062616c616e636520717565727920666f7220746865207a6560008201527f726f206164647265737300000000000000000000000000000000000000000000602082015250565b7f4552433732313a206f776e657220717565727920666f72206e6f6e657869737460008201527f656e7420746f6b656e0000000000000000000000000000000000000000000000602082015250565b7f45524337323155524953746f726167653a2055524920736574206f66206e6f6e60008201527f6578697374656e7420746f6b656e000000000000000000000000000000000000602082015250565b7f4552433732313a206d696e7420746f20746865207a65726f2061646472657373600082015250565b7f45524337323155524953746f726167653a2055524920717565727920666f722060008201527f6e6f6e6578697374656e7420746f6b656e000000000000000000000000000000602082015250565b7f4552433732313a20617070726f76656420717565727920666f72206e6f6e657860008201527f697374656e7420746f6b656e0000000000000000000000000000000000000000602082015250565b7f4552433732314d657461646174613a2055524920717565727920666f72206e6f60008201527f6e6578697374656e7420746f6b656e0000000000000000000000000000000000602082015250565b7f4552433732313a20617070726f76616c20746f2063757272656e74206f776e6560008201527f7200000000000000000000000000000000000000000000000000000000000000602082015250565b7f4552433732313a207472616e736665722063616c6c6572206973206e6f74206f60008201527f776e6572206e6f7220617070726f766564000000000000000000000000000000602082015250565b612bf781612510565b8114612c0257600080fd5b50565b612c0e81612522565b8114612c1957600080fd5b50565b612c258161252e565b8114612c3057600080fd5b50565b612c3c8161257a565b8114612c4757600080fd5b5056fea2646970667358221220bd59afb28cd0ea00a4cf8986c44cb54c06f37334dda0e95a401d268bb313fe3964736f6c63430008040033",
  "linkReferences": {},
  "deployedLinkReferences": {}
}