{
  "_format": "hh-sol-artifact-1",
  "contractName": "EpicNFT",
  "sourceName": "contracts/EpicNFT.sol",
  "abi": [
    {
      "inputs": [],
      "stateMutability": "nonpayable",
      "type": "constructor"
    },
    {
      "anonymous": false,
      "inputs": [
        {
          "indexed": true,
          "internalType": "address",
          "name": "owner",
          "type": "address"
        },
        {
          "indexed": true,
          "internalType": "address",
          "name": "approved",
          "type": "address"
        },
        {
          "indexed": true,
          "internalType": "uint256",
          "name": "tokenId",
          "type": "uint256"
        }
      ],
      "name": "Approval",
      "type": "event"
    },
    {
      "anonymous": false,
      "inputs": [
        {
          "indexed": true,
          "internalType": "address",
          "name": "owner",
          "type": "address"
        },
        {
          "indexed": true,
          "internalType": "address",
          "name": "operator",
          "type": "address"
        },
        {
          "indexed": false,
          "internalType": "bool",
          "name": "approved",
          "type": "bool"
        }
      ],
      "name": "ApprovalForAll",
      "type": "event"
    },
    {
      "anonymous": false,
      "inputs": [
        {
          "indexed": false,
          "internalType": "address",
          "name": "sender",
          "type": "address"
        },
        {
          "indexed": false,
          "internalType": "uint256",
          "name": "tokenId",
          "type": "uint256"
        },
        {
          "indexed": false,
          "internalType": "uint256",
          "name": "totalSupply",
          "type": "uint256"
        }
      ],
      "name": "NewEpicNFTMinted",
      "type": "event"
    },
    {
      "anonymous": false,
      "inputs": [
        {
          "indexed": true,
          "internalType": "address",
          "name": "from",
          "type": "address"
        },
        {
          "indexed": true,
          "internalType": "address",
          "name": "to",
          "type": "address"
        },
        {
          "indexed": true,
          "internalType": "uint256",
          "name": "tokenId",
          "type": "uint256"
        }
      ],
      "name": "Transfer",
      "type": "event"
    },
    {
      "inputs": [
        {
          "internalType": "address",
          "name": "to",
          "type": "address"
        },
        {
          "internalType": "uint256",
          "name": "tokenId",
          "type": "uint256"
        }
      ],
      "name": "approve",
      "outputs": [],
      "stateMutability": "nonpayable",
      "type": "function"
    },
    {
      "inputs": [
        {
          "internalType": "address",
          "name": "owner",
          "type": "address"
        }
      ],
      "name": "balanceOf",
      "outputs": [
        {
          "internalType": "uint256",
          "name": "",
          "type": "uint256"
        }
      ],
      "stateMutability": "view",
      "type": "function"
    },
    {
      "inputs": [
        {
          "internalType": "uint256",
          "name": "tokenId",
          "type": "uint256"
        }
      ],
      "name": "getApproved",
      "outputs": [
        {
          "internalType": "address",
          "name": "",
          "type": "address"
        }
      ],
      "stateMutability": "view",
      "type": "function"
    },
    {
      "inputs": [
        {
          "internalType": "address",
          "name": "owner",
          "type": "address"
        },
        {
          "internalType": "address",
          "name": "operator",
          "type": "address"
        }
      ],
      "name": "isApprovedForAll",
      "outputs": [
        {
          "internalType": "bool",
          "name": "",
          "type": "bool"
        }
      ],
      "stateMutability": "view",
      "type": "function"
    },
    {
      "inputs": [
        {
          "internalType": "string",
          "name": "tokenUri",
          "type": "string"
        }
      ],
      "name": "mintNFT",
      "outputs": [],
      "stateMutability": "payable",
      "type": "function"
    },
    {
      "inputs": [],
      "name": "name",
      "outputs": [
        {
          "internalType": "string",
          "name": "",
          "type": "string"
        }
      ],
      "stateMutability": "view",
      "type": "function"
    },
    {
      "inputs": [
        {
          "internalType": "uint256",
          "name": "tokenId",
          "type": "uint256"
        }
      ],
      "name": "ownerOf",
      "outputs": [
        {
          "internalType": "address",
          "name": "",
          "type": "address"
        }
      ],
      "stateMutability": "view",
      "type": "function"
    },
    {
      "inputs": [
        {
          "internalType": "address",
          "name": "from",
          "type": "address"
        },
        {
          "internalType": "address",
          "name": "to",
          "type": "address"
        },
        {
          "internalType": "uint256",
          "name": "tokenId",
          "type": "uint256"
        }
      ],
      "name": "safeTransferFrom",
      "outputs": [],
      "stateMutability": "nonpayable",
      "type": "function"
    },
    {
      "inputs": [
        {
          "internalType": "address",
          "name": "from",
          "type": "address"
        },
        {
          "internalType": "address",
          "name": "to",
          "type": "address"
        },
        {
          "internalType": "uint256",
          "name": "tokenId",
          "type": "uint256"
        },
        {
          "internalType": "bytes",
          "name": "_data",
          "type": "bytes"
        }
      ],
      "name": "safeTransferFrom",
      "outputs": [],
      "stateMutability": "nonpayable",
      "type": "function"
    },
    {
      "inputs": [
        {
          "internalType": "address",
          "name": "operator",
          "type": "address"
        },
        {
          "internalType": "bool",
          "name": "approved",
          "type": "bool"
        }
      ],
      "name": "setApprovalForAll",
      "outputs": [],
      "stateMutability": "nonpayable",
      "type": "function"
    },
    {
      "inputs": [
        {
          "internalType": "bytes4",
          "name": "interfaceId",
          "type": "bytes4"
        }
      ],
      "name": "supportsInterface",
      "outputs": [
        {
          "internalType": "bool",
          "name": "",
          "type": "bool"
        }
      ],
      "stateMutability": "view",
      "type": "function"
    },
    {
      "inputs": [],
      "name": "symbol",
      "outputs": [
        {
          "internalType": "string",
          "name": "",
          "type": "string"
        }
      ],
      "stateMutability": "view",
      "type": "function"
    },
    {
      "inputs": [
        {
          "internalType": "uint256",
          "name": "tokenId",
          "type": "uint256"
        }
      ],
      "name": "tokenURI",
      "outputs": [
        {
          "internalType": "string",
          "name": "",
          "type": "string"
        }
      ],
      "stateMutability": "view",
      "type": "function"
    },
    {
      "inputs": [],
      "name": "totalMinted",
      "outputs": [
        {
          "internalType": "uint256",
          "name": "",
          "type": "uint256"
        }
      ],
      "stateMutability": "view",
      "type": "function"
    },
    {
      "inputs": [
        {
          "internalType": "address",
          "name": "from",
          "type": "address"
        },
        {
          "internalType": "address",
          "name": "to",
          "type": "address"
        },
        {
          "internalType": "uint256",
          "name": "tokenId",
          "type": "uint256"
        }
      ],
      "name": "transferFrom",
      "outputs": [],
      "stateMutability": "nonpayable",
      "type": "function"
    }
  ],
  "bytecode": "0x60806040523480156200001157600080fd5b506040518060400160405280600781526020017f457069634e4654000000000000000000000000000000000000000000000000008152506040518060400160405280600481526020017f4550494300000000000000000000000000000000000000000000000000000000815250816000908051906020019062000096929190620000c8565b508060019080519060200190620000af929190620000c8565b50505060646009819055506000600881905550620001dd565b828054620000d69062000178565b90600052602060002090601f016020900481019282620000fa576000855562000146565b82601f106200011557805160ff191683800117855562000146565b8280016001018555821562000146579182015b828111156200014557825182559160200191906001019062000128565b5b50905062000155919062000159565b5090565b5b80821115620001745760008160009055506001016200015a565b5090565b600060028204905060018216806200019157607f821691505b60208210811415620001a857620001a7620001ae565b5b50919050565b7f4e487b7100000000000000000000000000000000000000000000000000000000600052602260045260246000fd5b612d5980620001ed6000396000f3fe6080604052600436106100e85760003560e01c806370a082311161008a578063b88d4fde11610059578063b88d4fde14610306578063c87b56dd1461032f578063e985e9c51461036c578063fb37e883146103a9576100e8565b806370a082311461024a57806395d89b4114610287578063a22cb465146102b2578063a2309ff8146102db576100e8565b8063095ea7b3116100c6578063095ea7b31461019257806323b872dd146101bb57806342842e0e146101e45780636352211e1461020d576100e8565b806301ffc9a7146100ed57806306fdde031461012a578063081812fc14610155575b600080fd5b3480156100f957600080fd5b50610114600480360381019061010f9190611d8e565b6103c5565b604051610121919061220c565b60405180910390f35b34801561013657600080fd5b5061013f6104a7565b60405161014c9190612227565b60405180910390f35b34801561016157600080fd5b5061017c60048036038101906101779190611e21565b610539565b604051610189919061216e565b60405180910390f35b34801561019e57600080fd5b506101b960048036038101906101b49190611d52565b6105be565b005b3480156101c757600080fd5b506101e260048036038101906101dd9190611c4c565b6106d6565b005b3480156101f057600080fd5b5061020b60048036038101906102069190611c4c565b610736565b005b34801561021957600080fd5b50610234600480360381019061022f9190611e21565b610756565b604051610241919061216e565b60405180910390f35b34801561025657600080fd5b50610271600480360381019061026c9190611be7565b610808565b60405161027e9190612449565b60405180910390f35b34801561029357600080fd5b5061029c6108c0565b6040516102a99190612227565b60405180910390f35b3480156102be57600080fd5b506102d960048036038101906102d49190611d16565b610952565b005b3480156102e757600080fd5b506102f0610968565b6040516102fd9190612449565b60405180910390f35b34801561031257600080fd5b5061032d60048036038101906103289190611c9b565b61096e565b005b34801561033b57600080fd5b5061035660048036038101906103519190611e21565b6109d0565b6040516103639190612227565b60405180910390f35b34801561037857600080fd5b50610393600480360381019061038e9190611c10565b610b22565b6040516103a0919061220c565b60405180910390f35b6103c360048036038101906103be9190611de0565b610bb6565b005b60007f80ac58cd000000000000000000000000000000000000000000000000000000007bffffffffffffffffffffffffffffffffffffffffffffffffffffffff1916827bffffffffffffffffffffffffffffffffffffffffffffffffffffffff1916148061049057507f5b5e139f000000000000000000000000000000000000000000000000000000007bffffffffffffffffffffffffffffffffffffffffffffffffffffffff1916827bffffffffffffffffffffffffffffffffffffffffffffffffffffffff1916145b806104a0575061049f82610c4c565b5b9050919050565b6060600080546104b69061269f565b80601f01602080910402602001604051908101604052809291908181526020018280546104e29061269f565b801561052f5780601f106105045761010080835404028352916020019161052f565b820191906000526020600020905b81548152906001019060200180831161051257829003601f168201915b5050505050905090565b600061054482610cb6565b610583576040517f08c379a000000000000000000000000000000000000000000000000000000000815260040161057a906123c9565b60405180910390fd5b6004600083815260200190815260200160002060009054906101000a900473ffffffffffffffffffffffffffffffffffffffff169050919050565b60006105c982610756565b90508073ffffffffffffffffffffffffffffffffffffffff168373ffffffffffffffffffffffffffffffffffffffff16141561063a576040517f08c379a000000000000000000000000000000000000000000000000000000000815260040161063190612409565b60405180910390fd5b8073ffffffffffffffffffffffffffffffffffffffff16610659610d22565b73ffffffffffffffffffffffffffffffffffffffff161480610688575061068781610682610d22565b610b22565b5b6106c7576040517f08c379a00000000000000000000000000000000000000000000000000000000081526004016106be90612309565b60405180910390fd5b6106d18383610d2a565b505050565b6106e76106e1610d22565b82610de3565b610726576040517f08c379a000000000000000000000000000000000000000000000000000000000815260040161071d90612429565b60405180910390fd5b610731838383610ec1565b505050565b6107518383836040518060200160405280600081525061096e565b505050565b6000806002600084815260200190815260200160002060009054906101000a900473ffffffffffffffffffffffffffffffffffffffff169050600073ffffffffffffffffffffffffffffffffffffffff168173ffffffffffffffffffffffffffffffffffffffff1614156107ff576040517f08c379a00000000000000000000000000000000000000000000000000000000081526004016107f690612349565b60405180910390fd5b80915050919050565b60008073ffffffffffffffffffffffffffffffffffffffff168273ffffffffffffffffffffffffffffffffffffffff161415610879576040517f08c379a000000000000000000000000000000000000000000000000000000000815260040161087090612329565b60405180910390fd5b600360008373ffffffffffffffffffffffffffffffffffffffff1673ffffffffffffffffffffffffffffffffffffffff168152602001908152602001600020549050919050565b6060600180546108cf9061269f565b80601f01602080910402602001604051908101604052809291908181526020018280546108fb9061269f565b80156109485780601f1061091d57610100808354040283529160200191610948565b820191906000526020600020905b81548152906001019060200180831161092b57829003601f168201915b5050505050905090565b61096461095d610d22565b8383611128565b5050565b60085481565b61097f610979610d22565b83610de3565b6109be576040517f08c379a00000000000000000000000000000000000000000000000000000000081526004016109b590612429565b60405180910390fd5b6109ca84848484611295565b50505050565b60606109db82610cb6565b610a1a576040517f08c379a0000000000000000000000000000000000000000000000000000000008152600401610a11906123a9565b60405180910390fd5b6000600660008481526020019081526020016000208054610a3a9061269f565b80601f0160208091040260200160405190810160405280929190818152602001828054610a669061269f565b8015610ab35780601f10610a8857610100808354040283529160200191610ab3565b820191906000526020600020905b815481529060010190602001808311610a9657829003601f168201915b505050505090506000610ac46112f1565b9050600081511415610ada578192505050610b1d565b600082511115610b0f578082604051602001610af792919061214a565b60405160208183030381529060405292505050610b1d565b610b1884611308565b925050505b919050565b6000600560008473ffffffffffffffffffffffffffffffffffffffff1673ffffffffffffffffffffffffffffffffffffffff16815260200190815260200160002060008373ffffffffffffffffffffffffffffffffffffffff1673ffffffffffffffffffffffffffffffffffffffff16815260200190815260200160002060009054906101000a900460ff16905092915050565b6009546008541115610bc757600080fd5b6000610bd360076113af565b9050610bdf33826113bd565b610be981836113db565b610bf3600761144f565b60086000815480929190610c0690612702565b91905055507f9e9e101732de0887d722bd72c01c5439edc857c9c2c763953d67e66de12441d33382600854604051610c40939291906121d5565b60405180910390a15050565b60007f01ffc9a7000000000000000000000000000000000000000000000000000000007bffffffffffffffffffffffffffffffffffffffffffffffffffffffff1916827bffffffffffffffffffffffffffffffffffffffffffffffffffffffff1916149050919050565b60008073ffffffffffffffffffffffffffffffffffffffff166002600084815260200190815260200160002060009054906101000a900473ffffffffffffffffffffffffffffffffffffffff1673ffffffffffffffffffffffffffffffffffffffff1614159050919050565b600033905090565b816004600083815260200190815260200160002060006101000a81548173ffffffffffffffffffffffffffffffffffffffff021916908373ffffffffffffffffffffffffffffffffffffffff160217905550808273ffffffffffffffffffffffffffffffffffffffff16610d9d83610756565b73ffffffffffffffffffffffffffffffffffffffff167f8c5be1e5ebec7d5bd14f71427d1e84f3dd0314c0f7b2291e5b200ac8c7c3b92560405160405180910390a45050565b6000610dee82610cb6565b610e2d576040517f08c379a0000000000000000000000000000000000000000000000000000000008152600401610e24906122e9565b60405180910390fd5b6000610e3883610756565b90508073ffffffffffffffffffffffffffffffffffffffff168473ffffffffffffffffffffffffffffffffffffffff161480610ea757508373ffffffffffffffffffffffffffffffffffffffff16610e8f84610539565b73ffffffffffffffffffffffffffffffffffffffff16145b80610eb85750610eb78185610b22565b5b91505092915050565b8273ffffffffffffffffffffffffffffffffffffffff16610ee182610756565b73ffffffffffffffffffffffffffffffffffffffff1614610f37576040517f08c379a0000000000000000000000000000000000000000000000000000000008152600401610f2e90612269565b60405180910390fd5b600073ffffffffffffffffffffffffffffffffffffffff168273ffffffffffffffffffffffffffffffffffffffff161415610fa7576040517f08c379a0000000000000000000000000000000000000000000000000000000008152600401610f9e906122a9565b60405180910390fd5b610fb2838383611465565b610fbd600082610d2a565b6001600360008573ffffffffffffffffffffffffffffffffffffffff1673ffffffffffffffffffffffffffffffffffffffff168152602001908152602001600020600082825461100d91906125b5565b925050819055506001600360008473ffffffffffffffffffffffffffffffffffffffff1673ffffffffffffffffffffffffffffffffffffffff1681526020019081526020016000206000828254611064919061252e565b92505081905550816002600083815260200190815260200160002060006101000a81548173ffffffffffffffffffffffffffffffffffffffff021916908373ffffffffffffffffffffffffffffffffffffffff160217905550808273ffffffffffffffffffffffffffffffffffffffff168473ffffffffffffffffffffffffffffffffffffffff167fddf252ad1be2c89b69c2b068fc378daa952ba7f163c4a11628f55a4df523b3ef60405160405180910390a461112383838361146a565b505050565b8173ffffffffffffffffffffffffffffffffffffffff168373ffffffffffffffffffffffffffffffffffffffff161415611197576040517f08c379a000000000000000000000000000000000000000000000000000000000815260040161118e906122c9565b60405180910390fd5b80600560008573ffffffffffffffffffffffffffffffffffffffff1673ffffffffffffffffffffffffffffffffffffffff16815260200190815260200160002060008473ffffffffffffffffffffffffffffffffffffffff1673ffffffffffffffffffffffffffffffffffffffff16815260200190815260200160002060006101000a81548160ff0219169083151502179055508173ffffffffffffffffffffffffffffffffffffffff168373ffffffffffffffffffffffffffffffffffffffff167f17307eab39ab6107e8899845ad3d59bd9653f200f220920489ca2b5937696c3183604051611288919061220c565b60405180910390a3505050565b6112a0848484610ec1565b6112ac8484848461146f565b6112eb576040517f08c379a00000000000000000000000000000000000000000000000000000000081526004016112e290612249565b60405180910390fd5b50505050565b606060405180602001604052806000815250905090565b606061131382610cb6565b611352576040517f08c379a0000000000000000000000000000000000000000000000000000000008152600401611349906123e9565b60405180910390fd5b600061135c6112f1565b9050600081511161137c57604051806020016040528060008152506113a7565b8061138684611606565b60405160200161139792919061214a565b6040516020818303038152906040525b915050919050565b600081600001549050919050565b6113d78282604051806020016040528060008152506117b3565b5050565b6113e482610cb6565b611423576040517f08c379a000000000000000000000000000000000000000000000000000000000815260040161141a90612369565b60405180910390fd5b8060066000848152602001908152602001600020908051906020019061144a929190611a0b565b505050565b6001816000016000828254019250508190555050565b505050565b505050565b60006114908473ffffffffffffffffffffffffffffffffffffffff1661180e565b156115f9578373ffffffffffffffffffffffffffffffffffffffff1663150b7a026114b9610d22565b8786866040518563ffffffff1660e01b81526004016114db9493929190612189565b602060405180830381600087803b1580156114f557600080fd5b505af192505050801561152657506040513d601f19601f820116820180604052508101906115239190611db7565b60015b6115a9573d8060008114611556576040519150601f19603f3d011682016040523d82523d6000602084013e61155b565b606091505b506000815114156115a1576040517f08c379a000000000000000000000000000000000000000000000000000000000815260040161159890612249565b60405180910390fd5b805181602001fd5b63150b7a0260e01b7bffffffffffffffffffffffffffffffffffffffffffffffffffffffff1916817bffffffffffffffffffffffffffffffffffffffffffffffffffffffff1916149150506115fe565b600190505b949350505050565b6060600082141561164e576040518060400160405280600181526020017f300000000000000000000000000000000000000000000000000000000000000081525090506117ae565b600082905060005b6000821461168057808061166990612702565b915050600a826116799190612584565b9150611656565b60008167ffffffffffffffff8111156116c2577f4e487b7100000000000000000000000000000000000000000000000000000000600052604160045260246000fd5b6040519080825280601f01601f1916602001820160405280156116f45781602001600182028036833780820191505090505b5090505b600085146117a75760018261170d91906125b5565b9150600a8561171c919061274b565b6030611728919061252e565b60f81b818381518110611764577f4e487b7100000000000000000000000000000000000000000000000000000000600052603260045260246000fd5b60200101907effffffffffffffffffffffffffffffffffffffffffffffffffffffffffffff1916908160001a905350600a856117a09190612584565b94506116f8565b8093505050505b919050565b6117bd8383611831565b6117ca600084848461146f565b611809576040517f08c379a000000000000000000000000000000000000000000000000000000000815260040161180090612249565b60405180910390fd5b505050565b6000808273ffffffffffffffffffffffffffffffffffffffff163b119050919050565b600073ffffffffffffffffffffffffffffffffffffffff168273ffffffffffffffffffffffffffffffffffffffff1614156118a1576040517f08c379a000000000000000000000000000000000000000000000000000000000815260040161189890612389565b60405180910390fd5b6118aa81610cb6565b156118ea576040517f08c379a00000000000000000000000000000000000000000000000000000000081526004016118e190612289565b60405180910390fd5b6118f660008383611465565b6001600360008473ffffffffffffffffffffffffffffffffffffffff1673ffffffffffffffffffffffffffffffffffffffff1681526020019081526020016000206000828254611946919061252e565b92505081905550816002600083815260200190815260200160002060006101000a81548173ffffffffffffffffffffffffffffffffffffffff021916908373ffffffffffffffffffffffffffffffffffffffff160217905550808273ffffffffffffffffffffffffffffffffffffffff16600073ffffffffffffffffffffffffffffffffffffffff167fddf252ad1be2c89b69c2b068fc378daa952ba7f163c4a11628f55a4df523b3ef60405160405180910390a4611a076000838361146a565b5050565b828054611a179061269f565b90600052602060002090601f016020900481019282611a395760008555611a80565b82601f10611a5257805160ff1916838001178555611a80565b82800160010185558215611a80579182015b82811115611a7f578251825591602001919060010190611a64565b5b509050611a8d9190611a91565b5090565b5b80821115611aaa576000816000905550600101611a92565b5090565b6000611ac1611abc84612489565b612464565b905082815260208101848484011115611ad957600080fd5b611ae484828561265d565b509392505050565b6000611aff611afa846124ba565b612464565b905082815260208101848484011115611b1757600080fd5b611b2284828561265d565b509392505050565b600081359050611b3981612cc7565b92915050565b600081359050611b4e81612cde565b92915050565b600081359050611b6381612cf5565b92915050565b600081519050611b7881612cf5565b92915050565b600082601f830112611b8f57600080fd5b8135611b9f848260208601611aae565b91505092915050565b600082601f830112611bb957600080fd5b8135611bc9848260208601611aec565b91505092915050565b600081359050611be181612d0c565b92915050565b600060208284031215611bf957600080fd5b6000611c0784828501611b2a565b91505092915050565b60008060408385031215611c2357600080fd5b6000611c3185828601611b2a565b9250506020611c4285828601611b2a565b9150509250929050565b600080600060608486031215611c6157600080fd5b6000611c6f86828701611b2a565b9350506020611c8086828701611b2a565b9250506040611c9186828701611bd2565b9150509250925092565b60008060008060808587031215611cb157600080fd5b6000611cbf87828801611b2a565b9450506020611cd087828801611b2a565b9350506040611ce187828801611bd2565b925050606085013567ffffffffffffffff811115611cfe57600080fd5b611d0a87828801611b7e565b91505092959194509250565b60008060408385031215611d2957600080fd5b6000611d3785828601611b2a565b9250506020611d4885828601611b3f565b9150509250929050565b60008060408385031215611d6557600080fd5b6000611d7385828601611b2a565b9250506020611d8485828601611bd2565b9150509250929050565b600060208284031215611da057600080fd5b6000611dae84828501611b54565b91505092915050565b600060208284031215611dc957600080fd5b6000611dd784828501611b69565b91505092915050565b600060208284031215611df257600080fd5b600082013567ffffffffffffffff811115611e0c57600080fd5b611e1884828501611ba8565b91505092915050565b600060208284031215611e3357600080fd5b6000611e4184828501611bd2565b91505092915050565b611e53816125e9565b82525050565b611e62816125fb565b82525050565b6000611e73826124eb565b611e7d8185612501565b9350611e8d81856020860161266c565b611e9681612838565b840191505092915050565b6000611eac826124f6565b611eb68185612512565b9350611ec681856020860161266c565b611ecf81612838565b840191505092915050565b6000611ee5826124f6565b611eef8185612523565b9350611eff81856020860161266c565b80840191505092915050565b6000611f18603283612512565b9150611f2382612849565b604082019050919050565b6000611f3b602583612512565b9150611f4682612898565b604082019050919050565b6000611f5e601c83612512565b9150611f69826128e7565b602082019050919050565b6000611f81602483612512565b9150611f8c82612910565b604082019050919050565b6000611fa4601983612512565b9150611faf8261295f565b602082019050919050565b6000611fc7602c83612512565b9150611fd282612988565b604082019050919050565b6000611fea603883612512565b9150611ff5826129d7565b604082019050919050565b600061200d602a83612512565b915061201882612a26565b604082019050919050565b6000612030602983612512565b915061203b82612a75565b604082019050919050565b6000612053602e83612512565b915061205e82612ac4565b604082019050919050565b6000612076602083612512565b915061208182612b13565b602082019050919050565b6000612099603183612512565b91506120a482612b3c565b604082019050919050565b60006120bc602c83612512565b91506120c782612b8b565b604082019050919050565b60006120df602f83612512565b91506120ea82612bda565b604082019050919050565b6000612102602183612512565b915061210d82612c29565b604082019050919050565b6000612125603183612512565b915061213082612c78565b604082019050919050565b61214481612653565b82525050565b60006121568285611eda565b91506121628284611eda565b91508190509392505050565b60006020820190506121836000830184611e4a565b92915050565b600060808201905061219e6000830187611e4a565b6121ab6020830186611e4a565b6121b8604083018561213b565b81810360608301526121ca8184611e68565b905095945050505050565b60006060820190506121ea6000830186611e4a565b6121f7602083018561213b565b612204604083018461213b565b949350505050565b60006020820190506122216000830184611e59565b92915050565b600060208201905081810360008301526122418184611ea1565b905092915050565b6000602082019050818103600083015261226281611f0b565b9050919050565b6000602082019050818103600083015261228281611f2e565b9050919050565b600060208201905081810360008301526122a281611f51565b9050919050565b600060208201905081810360008301526122c281611f74565b9050919050565b600060208201905081810360008301526122e281611f97565b9050919050565b6000602082019050818103600083015261230281611fba565b9050919050565b6000602082019050818103600083015261232281611fdd565b9050919050565b6000602082019050818103600083015261234281612000565b9050919050565b6000602082019050818103600083015261236281612023565b9050919050565b6000602082019050818103600083015261238281612046565b9050919050565b600060208201905081810360008301526123a281612069565b9050919050565b600060208201905081810360008301526123c28161208c565b9050919050565b600060208201905081810360008301526123e2816120af565b9050919050565b60006020820190508181036000830152612402816120d2565b9050919050565b60006020820190508181036000830152612422816120f5565b9050919050565b6000602082019050818103600083015261244281612118565b9050919050565b600060208201905061245e600083018461213b565b92915050565b600061246e61247f565b905061247a82826126d1565b919050565b6000604051905090565b600067ffffffffffffffff8211156124a4576124a3612809565b5b6124ad82612838565b9050602081019050919050565b600067ffffffffffffffff8211156124d5576124d4612809565b5b6124de82612838565b9050602081019050919050565b600081519050919050565b600081519050919050565b600082825260208201905092915050565b600082825260208201905092915050565b600081905092915050565b600061253982612653565b915061254483612653565b9250827fffffffffffffffffffffffffffffffffffffffffffffffffffffffffffffffff038211156125795761257861277c565b5b828201905092915050565b600061258f82612653565b915061259a83612653565b9250826125aa576125a96127ab565b5b828204905092915050565b60006125c082612653565b91506125cb83612653565b9250828210156125de576125dd61277c565b5b828203905092915050565b60006125f482612633565b9050919050565b60008115159050919050565b60007fffffffff0000000000000000000000000000000000000000000000000000000082169050919050565b600073ffffffffffffffffffffffffffffffffffffffff82169050919050565b6000819050919050565b82818337600083830152505050565b60005b8381101561268a57808201518184015260208101905061266f565b83811115612699576000848401525b50505050565b600060028204905060018216806126b757607f821691505b602082108114156126cb576126ca6127da565b5b50919050565b6126da82612838565b810181811067ffffffffffffffff821117156126f9576126f8612809565b5b80604052505050565b600061270d82612653565b91507fffffffffffffffffffffffffffffffffffffffffffffffffffffffffffffffff8214156127405761273f61277c565b5b600182019050919050565b600061275682612653565b915061276183612653565b925082612771576127706127ab565b5b828206905092915050565b7f4e487b7100000000000000000000000000000000000000000000000000000000600052601160045260246000fd5b7f4e487b7100000000000000000000000000000000000000000000000000000000600052601260045260246000fd5b7f4e487b7100000000000000000000000000000000000000000000000000000000600052602260045260246000fd5b7f4e487b7100000000000000000000000000000000000000000000000000000000600052604160045260246000fd5b6000601f19601f8301169050919050565b7f4552433732313a207472616e7366657220746f206e6f6e20455243373231526560008201527f63656976657220696d706c656d656e7465720000000000000000000000000000602082015250565b7f4552433732313a207472616e736665722066726f6d20696e636f72726563742060008201527f6f776e6572000000000000000000000000000000000000000000000000000000602082015250565b7f4552433732313a20746f6b656e20616c7265616479206d696e74656400000000600082015250565b7f4552433732313a207472616e7366657220746f20746865207a65726f2061646460008201527f7265737300000000000000000000000000000000000000000000000000000000602082015250565b7f4552433732313a20617070726f766520746f2063616c6c657200000000000000600082015250565b7f4552433732313a206f70657261746f7220717565727920666f72206e6f6e657860008201527f697374656e7420746f6b656e0000000000000000000000000000000000000000602082015250565b7f4552433732313a20617070726f76652063616c6c6572206973206e6f74206f7760008201527f6e6572206e6f7220617070726f76656420666f7220616c6c0000000000000000602082015250565b7f4552433732313a2062616c616e636520717565727920666f7220746865207a6560008201527f726f206164647265737300000000000000000000000000000000000000000000602082015250565b7f4552433732313a206f776e657220717565727920666f72206e6f6e657869737460008201527f656e7420746f6b656e0000000000000000000000000000000000000000000000602082015250565b7f45524337323155524953746f726167653a2055524920736574206f66206e6f6e60008201527f6578697374656e7420746f6b656e000000000000000000000000000000000000602082015250565b7f4552433732313a206d696e7420746f20746865207a65726f2061646472657373600082015250565b7f45524337323155524953746f726167653a2055524920717565727920666f722060008201527f6e6f6e6578697374656e7420746f6b656e000000000000000000000000000000602082015250565b7f4552433732313a20617070726f76656420717565727920666f72206e6f6e657860008201527f697374656e7420746f6b656e0000000000000000000000000000000000000000602082015250565b7f4552433732314d657461646174613a2055524920717565727920666f72206e6f60008201527f6e6578697374656e7420746f6b656e0000000000000000000000000000000000602082015250565b7f4552433732313a20617070726f76616c20746f2063757272656e74206f776e6560008201527f7200000000000000000000000000000000000000000000000000000000000000602082015250565b7f4552433732313a207472616e736665722063616c6c6572206973206e6f74206f60008201527f776e6572206e6f7220617070726f766564000000000000000000000000000000602082015250565b612cd0816125e9565b8114612cdb57600080fd5b50565b612ce7816125fb565b8114612cf257600080fd5b50565b612cfe81612607565b8114612d0957600080fd5b50565b612d1581612653565b8114612d2057600080fd5b5056fea2646970667358221220eec5f0db6af2c4935619e3d4f518d235dbc41424dea038a9afb83663779162a164736f6c63430008040033",
  "linkReferences": {},
  "deployedLinkReferences": {}
}